:020000040800F2
:1000000000000220A5280008752600087B260008AD
:1000100081260008872600088D26000800000000C1
:10002000000000000000000000000000932600080F
:10003000A126000800000000AF260008BD26000829
:10004000F5280008F5280008F5280008F52800081C
:10005000F5280008F5280008C9260008F52800083A
:10006000F5280008F5280008F5280008F5280008FC
:10007000F5280008F5280008F5280008F5280008EC
:10008000F5280008F5280008F52800080000000001
:10009000000000000000000000000000F52800083B
:1000A000F5280008F5280008F5280008F5280008BC
:1000B000F5280008F5280008F5280008F5280008AC
:1000C000F5280008F5280008F5280008F52800089C
:1000D000F5280008F52800081D270008000000008A
:1000E000F5280008F5280008F528000800000000A1
:1000F000000000000000000000000000F5280008DB
:1001000000000000F5280008F5280008F528000880
:1001100000000000000000000000000000000000DF
:10012000F5280008F5280008F5280008F52800083B
:10013000F52800080000000000000000000000009A
:10014000000000000000000000000000F52800088A
:10015000F5280008F5280008F5280008F52800080B
:10016000F5280008F5280008000000000000000045
:10017000000000000000000000000000000000007F
:1001800000000000F528000800000000000000004A
:08019000F5280008F52800081D
:1001A00010B5054C237833B9044B13B10448AFF3B1
:1001B00000800123237010BDA0010020000000007A
:1001C0002C72000808B5034B1BB103490348AFF379
:1001D000008008BD00000000A40100202C7200086F
:1001E00010F8012B11F8013B012A28BF9A42F7D0E1
:1001F000D01A7047034613F8012B002AFBD1181AB6
:1002000001387047000000000000000000000000FE
:1002100001F0FF01102A2BDB10F0070F08D010F8B7
:10022000013B013A8B422DD010F0070F42B3F6D1BB
:10023000F0B441EA012141EA014122F007047FF0D4
:1002400000070023F0E80256083C85EA010586EA2B
:10025000010685FA47F5A3FA87F586FA47F6A5FA67
:1002600087F68EB9EED1F0BC01F0FF0102F0070273
:1002700032B110F8013B013A83EA010313B1F8D11E
:100280000020704701387047002D06BF35460338FF
:10029000073815F0010F07D1013015F4807F02BF38
:1002A000013015F4C03F0130F0BC0138704700BF89
:1002B00053B94AB9002908BF00281CBF4FF0FF31CD
:1002C0004FF0FF3000F072B9ADF1080C6DE904CECB
:1002D00000F006F8DDF804E0DDE9022304B0704721
:1002E0002DE9F047089E04468846002B4BD18A42F0
:1002F000154667D9B2FA82F24AB1C2F1200701FA73
:1003000002F320FA07F7954047EA030894404FEAC2
:10031000154E230CB8FBFEF71FFA85FC0EFB178861
:1003200043EA084307FB0CF1994209D9EB1807F19E
:10033000FF3080F01B81994240F21881023F2B442C
:100340005B1AA4B2B3FBFEF00EFB103344EA034485
:1003500000FB0CFCA44509D92C1900F1FF3380F0F7
:100360000781A44540F2048102382C4440EA07404A
:10037000A4EB0C0400271EB1D4400023C6E90043BF
:100380003946BDE8F0878B4209D9002E00F0EB809A
:100390000027C6E9000138463946BDE8F087B3FAC0
:1003A00083F7002F47D18B4202D3824200F2FA80BA
:1003B000841A61EB030301209846002EE0D0C6E9C1
:1003C0000048DDE702B9FFDEB2FA82F2002A40F00F
:1003D0008F80491B4FEA154E1FFA85F80127B1FBA4
:1003E000FEFC230C0EFB1C1143EA014308FB0CF13D
:1003F000994207D9EB180CF1FF3002D2994200F272
:10040000CD808446591AA3B2B1FBFEF00EFB101446
:1004100043EA044408FB00F8A04507D92C1900F171
:10042000FF3302D2A04500F2B6801846A4EB0804C0
:1004300040EA0C409FE7C7F1200CBB4022FA0CFEBB
:100440004EEA030E01FA07F420FA0CF521FA0CF338
:100450004FEA1E482543B3FBF8F92C0C08FB19336F
:100460001FFA8EFA44EA034309FB0AF49C4202FA9B
:1004700007F200FA07F10BD91EEB030309F1FF3075
:1004800080F087809C4240F28480A9F10209734485
:100490001B1BADB2B3FBF8F008FB103345EA034475
:1004A00000FB0AFAA24508D91EEB040400F1FF3351
:1004B0006BD2A24569D90238744440EA0940A0FBD6
:1004C0000289A4EB0A044C45C2464B4654D351D092
:1004D000002E69D0B1EB0A0564EB030404FA0CFCAE
:1004E000FD40FC404CEA0505C6E90054002747E7FB
:1004F000C2F1200320FA03F7954001FA02F021FA35
:1005000003F34FEA154E3843010CB3FBFEF71FFA15
:1005100085F80EFB173341EA034107FB08F38B42D2
:1005200004FA02F407D9691807F1FF3C2FD28B4275
:100530002DD9023F2944CB1A81B2B3FBFEF00EFB4A
:10054000103341EA034100FB08F38B4207D96918D5
:1005500000F1FF3C17D28B4215D902382944C91A41
:1005600040EA07473BE73746304609E70746E7E6F4
:100570001846FBE64145ABD2B8EB020A69EB0E0226
:1005800001381346A4E76046E9E7184695E7674651
:10059000D1E781467CE702382C4447E7ACF1020CF6
:1005A0002B442FE7384608E73746E9E6704700BF97
:1005B00080B584B000AF786039600023FB60386894
:1005C000FFF718FE0346BB6021E0FB683A6813445E
:1005D0001B787A2B10D8FB683A6813441B78602B81
:1005E0000AD9FB683A6813441A78FB6879680B44A7
:1005F000203AD2B21A7007E0FB683A681A44FB68E6
:1006000079680B4412781A70FB680133FB60FA6852
:10061000BB689A42D9DBFB687A68134400221A70DF
:1006200000BF1037BD4680BD80B58CB000AF78608C
:100630000023BB62174BFB627A6807F1080311467F
:100640001846FFF7B5FF10E0FB6A1B6807F10802C8
:1006500011461846FFF7C4FD0346002B02D1FB6A82
:10066000BB6206E0FB6A0C33FB62FB6A1B68002B73
:10067000EAD1BB6A002B08D0BB6A5B68BA6A126811
:10068000796810469847034600E001231846303742
:10069000BD4680BD0000002080B5C6B000AF07F1A8
:1006A0000C03186007F1080319603B1D1A60002352
:1006B000C7F8143107F1080207F10C031168186834
:1006C00005F021FD3B1D1B6893F82030002B71D0F5
:1006D0000023C7F8143164E0D7F81431002B20D17F
:1006E0003B1D1A68D7F814311B02134421331B78C1
:1006F0003F2B16D13A1DD7F814311B022033126854
:1007000013445A1C07F114033549184605F0CCFC74
:1007100007F1140207F10C031146186805F0E4FC18
:100720003AE0D7F81431002B20D13B1D1A68D7F8D6
:1007300014311B02134421331B783F2B16D03A1D72
:10074000D7F814311B022033126813445A1C07F1E6
:1007500014032349184605F0A7FC07F1140207F11A
:100760000C031146186805F0BFFC15E03A1DD7F8D8
:1007700014311B022033126813445A1C07F114036E
:100780001849184605F090FC07F1140207F10C0314
:100790001146186805F0A8FCD7F814310133C7F8E2
:1007A00014313B1D1B6893F820301A46D7F81431DA
:1007B000934291DB07F10C031868FFF71BFD03461A
:1007C0001A4607F10C031B681344074A11889278F4
:1007D00019809A7000BF07F58C77BD4680BD00BFB9
:1007E000087300080C7300081073000880B5C4B0CB
:1007F00000AF3B1D18603B4619600023C7F80C3161
:1008000027E03A463B1D07F10C0012681968FFF714
:1008100043FF07F10C031846FFF7ECFC03469AB2BE
:1008200007F10C031946104804F0FAFC3B461B681C
:1008300003F5A15301330121184600F017F80346D0
:10084000002B01D1002309E0D7F80C310133C7F8A0
:100850000C31D7F80C31012BD3DD0123184607F5F5
:100860008877BD4680BD00BFB40E002080B584B03F
:1008700000AF786039600223FB600A23FB604FF40D
:1008800000620021114805F08BFB15E03B68002B4E
:1008900006D064234FF400620C490D4804F01AFCA2
:1008A00079680A4805F037FC0346002B01D0002385
:1008B00008E0012002F092F8FB685A1EFA60002B53
:1008C000E4D1012318461037BD4680BD1C06002028
:1008D000B40E002080B582B000AF78607B68002243
:1008E00083F820207B6821334FF4A0520021184662
:1008F00005F056FB7B6803F5A15301334FF480727A
:100900000021184605F04CFB4FF40062002103481B
:1009100005F046FB00BF0837BD4680BD1C06002021
:1009200080B483B000AF0346FB71054B1B68FA79B6
:10093000DA6300BF0C37BD465DF8047B704700BF2B
:10094000740E002080B500AF0C4B1B78622B04D8CE
:100950000A4B1B782133DBB200E00023074A1370F7
:10096000064B1B781846FFF7DBFF044B1B78194634
:10097000034805F01DFB00BF80BD00BFF000002054
:100980001473000880B582B000AF0346FB71F91DF7
:100990000A230122034803F08DFB00BF0837BD4640
:1009A00080BD00BF1C0E002080B500AF002280215A
:1009B000074802F0ADFEC82002F010F801228021A5
:1009C000034802F0A5FE642002F008F800BF80BDD5
:1009D0000004024080B582B000AF0346FB710022E4
:1009E0004021084802F094FEFB791846FFF7CAFF41
:1009F00001224021034802F08BFE00BF0837BD46AC
:100A000080BD00BF0004024080B582B000AF034645
:100A1000FB8001224021064802F07AFEFB88DBB20F
:100A20001846FFF7AFFF00BF0837BD4680BD00BFC7
:100A30000004024080B582B000AF0346FB80012273
:100A40004021094802F064FEFB881B0A9BB2DBB21E
:100A50001846FFF797FFFB88DBB21846FFF792FFB7
:100A600000BF0837BD4680BD0004024090B583B08A
:100A700000AF0446084611461A462346FB8003464B
:100A8000BB800B467B8013463B802A20FFF7A2FFEA
:100A9000FB881846FFF7CEFF7B881846FFF7CAFF92
:100AA0002B20FFF797FFBB881846FFF7C3FF3B8853
:100AB0001846FFF7BFFF2C20FFF78CFF00BF0C3755
:100AC000BD4690BD90B585B000AF044608461146BE
:100AD0001A462346FB800346BB800B467B801346A9
:100AE0003B807B88013B9AB23B88013B9BB2B98833
:100AF000F888FFF7BBFFBB88FB8110E0FB88BB8158
:100B000006E03B8C1846FFF795FFBB890133BB819C
:100B1000BA897B889A42F4D3FB890133FB81FA8935
:100B20003B889A42EAD300BF1437BD4690BD80B5DA
:100B300082B000AF0346FB800B46BB8013467B8030
:100B4000FB88B3F5F07F0ED8BB88B3F5A07F0AD839
:100B5000BB88FA88B988F888FFF788FF7B88184631
:100B6000FFF768FF00E000BF0837BD4680BD90B5C5
:100B700085B000AF0446084611461A462346FB805E
:100B80000346BB800B46FB7013463B800023FB6093
:100B9000FB78BB6084E0BB689BB2FA88D31A98B23A
:100BA000FB689BB2BA88D31A9BB23A881946FFF702
:100BB000BEFFBB689AB2FB88134498B2FB689BB235
:100BC000BA88D31A9BB23A881946FFF7B0FFFB6880
:100BD0009BB2FA88D31A98B2BB689AB2BB88134406
:100BE0009BB23A881946FFF7A2FFFB689BB2FA88CE
:100BF000D31A98B2BB689BB2BA88D31A9BB23A8810
:100C00001946FFF794FFBB689AB2FB88134498B269
:100C1000FB689AB2BB8813449BB23A881946FFF727
:100C200086FFFB689AB2FB88134498B2BB689BB2FC
:100C3000BA88D31A9BB23A881946FFF778FFFB6847
:100C40009AB2FB88134498B2BB689AB2BB8813442B
:100C50009BB23A881946FFF76AFFBB689BB2FA88D5
:100C6000D31A98B2FB689AB2BB8813449BB23A88F5
:100C70001946FFF75CFFFB680133FB60FB68FA680D
:100C800002FB03F2BB68B96801FB03F31A44FB786B
:100C9000F97801FB03F39A4202DDBB68013BBB60BC
:100CA000FA68BB689A427FF776AF00BF1437BD463B
:100CB00090BD000090B587B000AF044608461146CD
:100CC0001A462346FB800346BB800B46FB70134647
:100CD0003B8000237B75FB883B8297F82C305B08B8
:100CE000FB73FB7BDB08DBB21A46FB7B03F00703DD
:100CF000DBB2002B14BF01230023DBB213449AB2F2
:100D000097F82C309BB212FB03F3BB81FB78203B9E
:100D1000FB70FB7B9AB2FB8813449BB2013B9CB2F5
:100D200097F82C309AB2BB8813449BB2013B9BB21C
:100D3000B988F8882246FFF799FE00237B8269E094
:100D400097F82C300C2B0BD1FA78798A3648134659
:100D50005B0013449B0003440B441B78FB750BE0C2
:100D600097F82C30102B5AD1FA787B8A2F49120130
:100D70000A4413441B78FB750023BB7544E097F8C5
:100D80003030002B20D1FA7DBB7D42FA03F303F013
:100D90000103002B04D03B881846FFF74BFE03E00D
:100DA0003B8D1846FFF746FE7B7D01337B757B7DCF
:100DB000FA7BB3FBF2F102FB01F29B1ADBB2002BD0
:100DC0001FD100237B7522E0FA7DBB7D42FA03F33D
:100DD00003F00103002B05D03A88B988FB88184638
:100DE000FFF7A5FEFB880133FB80FA883B8AD21A05
:100DF000FB7B9A4205D13B8AFB80BB880133BB80D9
:100E000005E0BB7D0133BB75BB7D072BB7D97B8A62
:100E100001337B827A8ABB899A4291D300E000BF7A
:100E20001C37BD4690BD00BF14790008887D0008BE
:100E300090B589B004AFBA601A460346FB810B46F1
:100E4000BB811346FB801AE0BB681A78FC88B9891D
:100E5000F88997F82830029397F8243001933B8C57
:100E600000932346FFF726FF97F824305B08DBB298
:100E70009AB2FB891344FB81BB680133BB60BB683A
:100E80001B78002BE0D100BF1437BD4690BD80B564
:100E900000AFFFF789FD1120FFF79CFD782001F0DE
:100EA0009DFDF020FFF796FDC320FFF7ADFDF0207C
:100EB000FFF790FD9620FFF7A7FD3620FFF78AFD8C
:100EC0000223002B03D14820FFF79EFD10E00223F0
:100ED000012B03D18820FFF797FD09E00223022BA5
:100EE00003D12820FFF790FD02E0E820FFF78CFDFA
:100EF0003A20FFF76FFD0520FFF786FDE820FFF79A
:100F000069FD4020FFF780FD8220FFF77DFD07206F
:100F1000FFF77AFD1820FFF777FD2720FFF774FD14
:100F20000A20FFF771FDB620FFF76EFD3320FFF7B3
:100F30006BFDC520FFF74EFD2720FFF765FDC220A2
:100F4000FFF748FDA720FFF75FFDE020FFF742FD18
:100F5000F020FFF759FD0120FFF756FD0620FFF7AF
:100F600053FD0F20FFF750FD1220FFF74DFD1D2010
:100F7000FFF74AFD3620FFF747FD5420FFF744FDF9
:100F80004420FFF741FD0C20FFF73EFD1820FFF73E
:100F90003BFD1620FFF738FD1320FFF735FD152028
:100FA000FFF732FDE120FFF715FDF020FFF72CFDE4
:100FB0000120FFF729FD0520FFF726FD0A20FFF796
:100FC00023FD0B20FFF720FD0720FFF71DFD32203A
:100FD000FFF71AFD4420FFF717FD4420FFF714FD2B
:100FE0000C20FFF711FD1820FFF70EFD1720FFF76B
:100FF0000BFD1320FFF708FD1620FFF705FDF0207D
:10100000FFF7E8FC3C20FFF7FFFCF020FFF7E2FCD5
:101010006920FFF7F9FC2920FFF7DCFC00BF80BD49
:1010200080B500AF642001F0D9FC00BF80BD000096
:1010300080B500AF064801F037FD3221044801F0C9
:10104000D9FD034801F05AFE0346184680BD00BF93
:10105000D405002080B584B004AF1648FFF7E8FF40
:101060000246154B1A60144B1B681946134804F0CE
:101070009FFF114B1B681A46642303FB02F3002BEE
:1010800000DAFF331B121A460D490E4805F00CF822
:1010900000230293102301934CF21863009340F253
:1010A000CF13084A0021E120FFF7C2FE00BFBD4672
:1010B00080BD00BFD405002018240020287300083C
:1010C0003C7300081C24002080B582B000AF144A95
:1010D000144B03CB106051601B781372104B00222D
:1010E00083F82020104B114A1188927819809A7049
:1010F0000B48FFF799FA0346FB710948FFF7EAFB33
:10110000FB79002B03D00A4804F0C6FF02E009482F
:1011100004F0C2FFFB7918460837BD4680BD00BF0A
:10112000F40E0020A073000815230020547300085B
:10113000AC730008CC73000880B582B000AF154ACC
:10114000154B03CB10605160124B012283F8202015
:10115000124A134B1B881380124A1349134804F098
:10116000A3FF0C48FFF760FA0346FB710948FFF73D
:10117000B1FBFB79002B03D00D4804F08DFF03E099
:1011800008490C4804F014FFFB7918460837BD469F
:1011900080BD00BFF40E0020E8730008150F00208A
:1011A000F0730008F4000020F473000815230020F9
:1011B000047400082874000880B582B000AFFFF7FF
:1011C000BBFF0346002B01D1002325E0144A154B39
:1011D00003CB10605160124B012283F8202012498A
:1011E000124804F090FF104A1149124804F05CFFC5
:1011F0000B48FFF719FA0346FB710948FFF76AFB32
:10120000FB79002B03D00C4804F046FF03E00649AD
:101210000A4804F0CDFEFB7918460837BD4680BD6C
:10122000F40E0020E8730008F4000020150F0020E1
:101230004C740008152300205874000878740008C6
:1012400080B582B000AF154A154B03CB10605160DA
:10125000124B012283F82020124A134B1B88138063
:10126000124A1349134804F01FFF0C48FFF7DCF93A
:101270000346FB710948FFF72DFBFB79002B03D0D8
:101280000D4804F009FF03E008490C4804F090FE03
:10129000FB7918460837BD4680BD00BFF40E00201C
:1012A00098740008150F0020F07300080301002057
:1012B000A074000815230020AC740008D074000846
:1012C00080B582B000AFFFF7BBFF0346002B01D112
:1012D000002325E0144A154B03CB10605160124BDC
:1012E000012283F820201249124804F00CFF124A10
:1012F0001249134804F0D8FE0B48FFF795F903464E
:10130000FB710948FFF7E6FAFB79002B03D00D4883
:1013100004F0C2FE03E008490B4804F049FEFB79E3
:1013200018460837BD4680BDF40E002098740008AA
:10133000FC000020150F002003010020A07400080D
:1013400015230020F47400081475000880B582B0DD
:1013500000AF154A154B03CB10605160124B0122B0
:1013600083F82020124A134B1B881380124A13491A
:10137000134804F099FE0C48FFF756F90346FB7139
:101380000948FFF7A7FAFB79002B03D00D4804F0BA
:1013900083FE03E008490C4804F00AFEFB79184676
:1013A0000837BD4680BD00BFF40E0020347500082C
:1013B000150F0020F0730008160100203C7500088E
:1013C00015230020487500087075000880B582B0AC
:1013D00000AFFFF7BBFF0346002B01D1002327E03E
:1013E000154A164B03CB10605160134B012283F852
:1013F00020201349134804F086FE134A134B03CBF5
:10140000106051601B8813810B48FFF70DF90346EC
:10141000FB710948FFF75EFAFB79002B03D00C48FB
:1014200004F03AFE03E006490A4804F0C1FDFB79E6
:1014300018460837BD4680BDF40E002034750008FC
:1014400016010020150F00201523002098750008B4
:10145000A4750008C875000880B582B000AF164AB0
:10146000164B03CB106051601B781372124B012294
:1014700083F82020124A134B1B881380124A134909
:10148000134804F011FE0C48FFF7CEF80346FB7139
:101490000948FFF71FFAFB79002B03D00D4804F031
:1014A000FBFD03E008490C4804F082FDFB79184677
:1014B0000837BD4680BD00BFF40E0020EC75000863
:1014C000150F0020F07300080C010020F8750008CB
:1014D00015230020047600082C76000880B582B021
:1014E00000AFFFF7B9FF0346002B01D1002329E02D
:1014F000164A174B03CB106051601B781372134BC5
:10150000012283F820201349134804F0FCFD134AFC
:10151000134B03CB106051601B8813810B48FFF7FE
:1015200083F80346FB710948FFF7D4F9FB79002BD8
:1015300003D00C4804F0B0FD03E006490A4804F06B
:1015400037FDFB7918460837BD4680BDF40E0020F4
:10155000EC7500080C010020150F00201523002059
:1015600098750008547600087876000880B582B037
:1015700000AF164B164A10681860918892799980CE
:101580009A71124B012283F82020124A124B1B88B9
:101590001380124A1249134804F086FD0B48FFF7E6
:1015A00043F80346FB710948FFF794F9FB79002BD8
:1015B00003D00D4804F070FD03E008490B4804F027
:1015C000F7FCFB7918460837BD4680BDF40E0020B5
:1015D0009C760008150F0020F07300082001002001
:1015E000A476000815230020B0760008D476000801
:1015F00080B582B000AFFFF7B9FF0346002B01D1E1
:1016000000232AE0174B184A1068186091889279D5
:1016100099809A71134B012283F8202013491448B2
:1016200004F071FD134A144B03CB106051601B781A
:1016300013720C48FEF7F8FF0346FB710948FFF7E9
:1016400049F9FB79002B03D00C4804F025FD03E099
:1016500006490B4804F0ACFCFB7918460837BD4638
:1016600080BD00BFF40E00209C7600082001002001
:10167000150F002015230020F876000804770008D5
:101680002477000880B582B000AF174B174A106866
:1016900018609188927999809A71134B012283F88E
:1016A0002020134A134B1B881380134A134B03CB80
:1016B000106051601B7813720B48FEF7B5FF0346AC
:1016C000FB710948FFF706F9FB79002B03D00C48A2
:1016D00004F0E2FC03E00B490B4804F069FCFB79E1
:1016E00018460837BD4680BDF40E00204477000838
:1016F000150F0020F0730008152300204C77000818
:10170000587700087C7700088077000880B582B0A1
:1017100000AFFFF7B7FF0346002B01D100232AE0FB
:10172000174B184A106818609188927999809A71BD
:10173000134B012283F82020134A144B1B8813807B
:10174000134A144B03CB106051601B7813720C4882
:10175000FEF76AFF0346FB710948FFF7BBF8FB7908
:10176000002B03D00C4804F097FC03E007490B481A
:1017700004F01EFCFB7918460837BD4680BD00BF4B
:10178000F40E002044770008150F00207C77000835
:10179000152300204C770008A4770008C4770008C0
:1017A00080B582B000AF164A164B03CB1060516073
:1017B0001B781372124B012283F82020124A134B1C
:1017C0001B881380124A1349134804F06DFC0C481F
:1017D000FEF72AFF0346FB710948FFF77BF8FB7908
:1017E000002B03D00D4804F057FC03E008490C48D7
:1017F00004F0DEFBFB7918460837BD4680BD00BF0C
:10180000F40E0020E4770008150F0020F0730008A4
:1018100028010020F077000815230020FC7700083D
:101820002078000880B582B000AFFFF7B9FF03460B
:10183000002B01D1002327E0154A164B03CB106083
:1018400051601B781372124B012283F82020124939
:10185000124804F058FC104A1149124804F024FCC4
:101860000B48FEF7E1FE0346FB710948FFF732F82B
:10187000FB79002B03D00C4804F00EFC03E0064972
:101880000A4804F095FBFB7918460837BD4680BD31
:10189000F40E0020E477000828010020150F002036
:1018A000F0770008152300204478000864780008C9
:1018B00080B500AF254B1B68012B12D0022B23D023
:1018C000002B42D1FFF700FC4FF47A7001F086F84C
:1018D000FFF772FC0346002B2AD11C4B01221A6031
:1018E00033E0FFF7EDFC0346002B23D1FFF780FE2A
:1018F0000346002B20D1FFF795FF0346002B1DD197
:10190000124B02221A6020E0FFF760FD0346002B15
:1019100016D1FFF7E3FD0346002B13D1FFF7F6FEC8
:101920000346002B10D1094B03221A6000BF0CE0C4
:1019300000BF0AE000BF08E000BF06E000BF04E00F
:1019400000BF02E000BF00E000BF80BD3C240020DB
:1019500080B485B000AF78600023FB8104E07B6831
:101960001B685A1C7B681A607B681B681B782F2BCE
:10197000F5D97B681B681B78392BF0D815E0FB89FB
:101980005B009AB2FB89DB009BB213449AB27B687E
:101990001B681B7883F03003DBB29BB21344FB81DE
:1019A0007B681B685A1C7B681A607B681B681B7805
:1019B0002F2B04D97B681B681B78392BDFD9FB8957
:1019C00018461437BD465DF8047B704790B585B066
:1019D00000AF7860444B1B78002B0CBF0123002321
:1019E000DBB21A46404B1A704049786804F093FB0A
:1019F0000346BB6007F108031846FFF7A9FF03463B
:101A0000DAB23B4B1A700023FB6062E007F1080377
:101A10001846FFF79DFF03461A46334B1B781846BE
:101A2000D1B2344AFB685B00034402F83310BB6850
:101A30001B782C2B01D0012352E02B4B1B781C462A
:101A400007F108031846FFF783FF03461946294AA2
:101A5000FB685B002344DB0013440A465A80BB68E2
:101A60001B782C2B01D001233AE01F4B1B781C461E
:101A700007F108031846FFF76BFF034619461D4A96
:101A8000FB685B002344DB0013440A469A80BB6872
:101A90001B782C2B01D0012322E007F10803184604
:101AA000FFF756FF03461A460F4B1B781846D1B274
:101AB000104AFB685B000344DB0013440A469A713A
:101AC000BB681B783B2B01D0012309E0FB68013385
:101AD000FB60074B1B781A46FB68934296DB00239A
:101AE00018461437BD4690BD41260020887800086E
:101AF000402600204426002080B582B000AF264B4F
:101B00001B781946254804F053FA00237B6038E01F
:101B1000234B1B781946234A7B685B000B44DB0090
:101B200013449B791A4679681F4804F041FA1C4B0C
:101B30001B7819461B4A7B685B000B4412F8333054
:101B400019461A4804F034FA154B1B781946154A01
:101B50007B685B000B44DB0013445B881846104B2A
:101B60001B7819460F4A7B685B000B44DB0013446B
:101B70009B881A4601460E4804F01AFA7B68013326
:101B80007B60054B1B781A467B689342C0DB00BF25
:101B90000837BD4680BD00BF402600209078000871
:101BA000412600204426002098780008A8780008E4
:101BB000B4780008B0B582B000AF4C4B1B78002B56
:101BC0000CBF01230023DBB21A46484B1A700023D6
:101BD0007B6027E0454B1B781946454A7B685B00D4
:101BE0000B44DB0013445888404B1B781946404A8D
:101BF0007B685B000B44DB00134499883B4B1B78EC
:101C00001C463B4A7B685B00234412F83330022BAE
:101C100001D11E2200E00F220023FEF7A8FF7B68FF
:101C200001337B60334B1B781A467B689342D1DBD0
:101C30002E4B1B78002B0CBF01230023DBB21A466E
:101C40002A4B1A7000233B6046E0284B1B7819464C
:101C5000274A3B685B000B44DB0013445888234B46
:101C60001B781946224A3B685B000B44DB00134497
:101C700099881E4B1B781C461D4A3B685B00234419
:101C800012F83330022B01D11E2400E00F24174B31
:101C90001B781D46164A3B685B002B44DB0013444F
:101CA0009B79002B10D1114B1B781D46104A3B68C5
:101CB0005B002B4412F83330022B02D14FF4FC634B
:101CC00004E040F2FF7301E04FF6E0732246FEF7B6
:101CD0004EFF3B6801333B60064B1B781A463B685E
:101CE0009342B2DB00BF0837BD46B0BD412600209D
:101CF000442600204026002080B582B000AF7860E6
:101D0000391D4FF6FF730122034803F04AF97B683F
:101D100018460837BD4680BDE426002080B582B055
:101D200000AF78607B681B681A4A93422FD11A4B28
:101D30001B78002B2BD0194B1B780A2B03D0174B89
:101D40001B780D2B07D1164B1B68002B1ED0154B93
:101D500001221A701AE0124B1B68B3F5806F0ED285
:101D60000F4B1B685A1C0E490A600C4A11780E4A28
:101D7000D154012209490D4803F097FA07E0094BB5
:101D800001221A700A4804F087F900E000BF083702
:101D9000BD4680BD00440040C5050020C4050020AC
:101DA000C0050020BC050020BC010020B40E0020AE
:101DB000C478000880B483B000AF0346FB8000BF46
:101DC0000C37BD465DF8047B7047000080B483B0DB
:101DD00000AF00237B6007E00E4A7B6813440022BB
:101DE0001A707B6801337B607A680B4B1B689A42E0
:101DF000F2D30A4B00221A70074B00221A60064BDE
:101E00001B68DAB2064B1A7000BF0C37BD465DF88E
:101E1000047B7047BC010020C0050020C5050020E0
:101E2000BC05002080B582B002AF00F065FD00F077
:101E300075F800F025FA00F0CBF900F0F7F900F0A2
:101E4000CBF800F051F900F019F92A4B00221A7072
:101E5000FFF7E6F8FFF71BF80821274802F06AFBB6
:101E60006420FEF75DFDFFF7F5F800F0ABFD0346DB
:101E7000224A1946224804F09BF801E0FFF718FDBA
:101E8000204B1B68032BF9D11F4804F005F91021E2
:101E90001E4801F025FC0346002B0BD1FEF7F7FF8F
:101EA000002300934FF4A0734FF4F0720021002040
:101EB000FEF708FE0F4B01221A7001221449154843
:101EC00003F0F3F9144B1B78002BE0D000F07AFDFF
:101ED00003460A4A19460A4804F06AF80748FFF719
:101EE00075FDFFF709FEFFF765FEFFF76FFFFFF7D0
:101EF000B1F8CCE7C5050020740E0020BC0100201D
:101F0000E07800083C240020EC780008000402403F
:101F1000C4050020B40E0020BC05002080B594B09C
:101F200000AF07F1200330220021184604F038F8F2
:101F300007F10C0300221A605A609A60DA601A6195
:101F40000023BB60224B1B6C214A43F08053136477
:101F50001F4B1B6C03F08053BB60BB6800237B608E
:101F60001C4B1B681B4A43F440431360194B1B680E
:101F700003F440437B607B6802233B620123FB62E6
:101F800010233B630023BB6307F12003184601F0D5
:101F9000F1FB0346002B01D000F0D8F90F23FB60C2
:101FA00000233B6100237B610023BB610023FB61B5
:101FB00007F10C030021184601F04CFE0346002BEC
:101FC00001D000F0C3F900BF5037BD4680BD00BF4F
:101FD000003802400070004080B584B000AF3B463E
:101FE00000221A605A609A60DA60214B214A1A6016
:101FF0001F4B00225A601E4B4FF000729A601C4B20
:1020000000221A611A4B01221A76194B002283F81A
:102010002020174B0022DA62154B174A9A62144BA4
:102020000022DA60124B0122DA61114B002283F8A0
:1020300030200F4B01225A610D4800F0F1FC03469D
:10204000002B01D000F082F906233B6001237B6066
:102050000023BB603B461946054800F05DFE034681
:10206000002B01D000F072F900BF1037BD4680BDD3
:10207000D4050020002001400100000F80B500AF12
:10208000174B184A1A60164B4FF482725A60144B61
:1020900000229A60124B0022DA60114B00221A6172
:1020A0000F4B00225A610E4B4FF400729A610C4B99
:1020B0000022DA610A4B00221A62094B00225A629E
:1020C000074B00229A62064B0A22DA62044801F0AA
:1020D0008DFF0346002B01D000F038F900BF80BD12
:1020E0001C0E00200030014080B58EB000AF07F11B
:1020F000280300221A605A609A60DA6007F1200310
:1021000000221A605A603B1D00221A605A609A60D1
:10211000DA601A615A619A612C4B4FF080421A6062
:102120002A4B9F225A60294B00229A60274B632238
:10213000DA60264B00221A61244B80229A612348E0
:1021400002F098F90346002B01D000F0FFF84FF49D
:102150008053BB6207F1280319461C4802F0E2FADB
:102160000346002B01D000F0F1F8184802F0ADF959
:102170000346002B01D000F0E9F800233B62002366
:102180007B6207F120031946104802F04FFE034618
:10219000002B01D000F0DAF860237B600023BB60E5
:1021A0000023FB6000237B613B1D08221946074882
:1021B00002F0F2F90346002B01D000F0C7F8034803
:1021C00000F09CF900BF3837BD4680BD740E00207A
:1021D00080B500AF124B134A1A60114B4FF4E13235
:1021E0005A600F4B00229A600D4B0022DA600C4BB4
:1021F00000221A610A4B0C225A61094B00229A6193
:10220000074B0022DA61064802F07EFE0346002BEF
:1022100001D000F09BF8044803F03EFF00BF80BDF2
:10222000E4260020001001400079000880B500AFCE
:10223000114B124A1A60104B4FF4E1325A600E4BA8
:1022400000229A600C4B0022DA600B4B00221A61CC
:10225000094B0C225A61084B00229A61064B00225E
:10226000DA61054802F050FE0346002B01D000F071
:102270006DF800BF80BD00BFB40E002000440040D8
:1022800080B588B000AF07F10C0300221A605A60D5
:102290009A60DA601A610023BB60284B1B6B274AE7
:1022A00043F001031363254B1B6B03F00103BB6079
:1022B000BB6800237B60214B1B6B204A43F0020369
:1022C00013631E4B1B6B03F002037B607B680022D1
:1022D000E0211B4801F01CFA0123FB60194B3B6114
:1022E00000237B6107F10C031946174801F076F8CB
:1022F0001023FB6000233B6100237B6107F10C038B
:1023000019460F4801F06AF8E023FB6001233B61A6
:1023100000237B610023BB6107F10C0319460848C9
:1023200001F05CF800220121062000F0FEFF0620EB
:1023300001F017F800BF2037BD4680BD00380240CD
:1023400000040240000021100000024080B400AFF1
:1023500072B6FEE780B483B000AF00237B60104B01
:102360005B6C0F4A43F4804353640D4B5B6C03F486
:1023700080437B607B6800233B60094B1B6C084AF1
:1023800043F080531364064B1B6C03F080533B6097
:102390003B6800BF0C37BD465DF8047B704700BF4B
:1023A0000038024080B58AB000AF786007F11403AE
:1023B00000221A605A609A60DA601A617B681B68B2
:1023C000174A934227D100233B61164B5B6C154A99
:1023D00043F480735364134B5B6C03F480733B6171
:1023E0003B690023FB600F4B1B6B0E4A43F001035C
:1023F00013630C4B1B6B03F00103FB60FB68402372
:102400007B610323BB610023FB6107F114031946C1
:10241000054800F0E3FF00BF2837BD4680BD00BF80
:1024200000200140003802400000024080B58AB020
:1024300000AF786007F1140300221A605A609A60B6
:10244000DA601A617B681B68194A93422BD100231A
:102450003B61184B5B6C174A43F480535364154B34
:102460005B6C03F480533B613B690023FB60114BC1
:102470001B6B104A43F0010313630E4B1B6B03F0FD
:102480000103FB60FB68A0237B610223BB61002387
:10249000FB6103233B6205237B6207F114031946AA
:1024A000054800F09BFF00BF2837BD4680BD00BF38
:1024B00000300140003802400000024080B485B086
:1024C00000AF78607B681B68B3F1804F0DD10023AB
:1024D000FB60094B1B6C084A43F001031364064B75
:1024E0001B6C03F00103FB60FB6800BF1437BD46A3
:1024F0005DF8047B704700BF0038024080B588B0AB
:1025000000AF786007F10C0300221A605A609A60ED
:10251000DA601A617B681B68B3F1804F1ED100231B
:10252000BB60104B1B6B0F4A43F0020313630D4B50
:102530001B6B03F00203BB60BB684FF48063FB605E
:1025400002233B6100237B610023BB610123FB610C
:1025500007F10C031946044800F040FF00BF203784
:10256000BD4680BD003802400004024080B58CB0FA
:1025700000AF786007F11C0300221A605A609A606D
:10258000DA601A617B681B68364A93422DD10023BA
:10259000BB61354B5B6C344A43F010035364324BE0
:1025A0005B6C03F01003BB61BB6900237B612E4BA6
:1025B0001B6B2D4A43F0010313632B4B1B6B03F082
:1025C00001037B617B694FF4C063FB6102233B62C3
:1025D00000237B620323BB620723FB6207F11C031A
:1025E0001946224800F0FAFE38E07B681B68204A52
:1025F000934233D100233B611B4B1B6C1A4A43F4BB
:1026000000331364184B1B6C03F400333B613B69CC
:102610000023FB60144B1B6B134A43F0010313634D
:10262000114B1B6B03F00103FB60FB680C23FB6188
:1026300002233B6200237B620323BB620723FB620E
:1026400007F11C031946094800F0C8FE00220021CA
:10265000262000F06AFE262000F083FE00BF3037FF
:10266000BD4680BD0010014000380240000002401D
:102670000044004080B400AFFEE780B400AFFEE746
:1026800080B400AFFEE780B400AFFEE780B400AFD7
:10269000FEE780B400AF00BFBD465DF8047B704725
:1026A00080B400AF00BFBD465DF8047B704780B4C6
:1026B00000AF00BFBD465DF8047B704780B500AF3A
:1026C00000F06CF900BF80BD80B500AF012111485A
:1026D00001F006F80346002B13D1142000F07EF918
:1026E00001210C4800F0FCFF0346002B09D1FEF746
:1026F00029F900BF0121074800F0F2FF0346002B33
:10270000F8D0012001F01EF8034B01225A6100BFEE
:1027100080BD00BF00000240003C014080B500AF1A
:10272000024802F017FE00BF80BD00BFB40E0020BB
:1027300080B586B000AFF860B9607A6000237B6135
:102740000AE0AFF300800146BB685A1CBA60CAB207
:102750001A707B6901337B617A697B689A42F0DB8E
:102760007B6818461837BD4680BD80B586B000AF7F
:10277000F860B9607A6000237B6109E0BB685A1C8D
:10278000BA601B781846FFF7B7FA7B6901337B61A3
:102790007A697B689A42F1DB7B6818461837BD4638
:1027A00080BD80B483B000AF78604FF0FF3318462F
:1027B0000C37BD465DF8047B704780B483B000AF32
:1027C000786039603B684FF400525A600023184625
:1027D0000C37BD465DF8047B704780B483B000AF12
:1027E0007860012318460C37BD465DF8047B7047BE
:1027F00080B485B000AFF860B9607A6000231846F5
:102800001437BD465DF8047B7047000080B586B084
:1028100000AF7860144A154BD31A7B617B693B612A
:10282000134B1B68002B02D1114B124A1A60104B3C
:102830001A687B6813443A699A4207D203F086FB10
:1028400002460C2313604FF0FF3309E0084B1B686E
:10285000FB60074B1A687B681344054A1360FB68EA
:1028600018461837BD4680BD000002200004000055
:10287000C80500203027002080B400AF084BD3F8F3
:102880008830074A43F47003C2F88830044B4FF095
:1028900000629A6000BFBD465DF8047B704700BFD0
:1028A00000ED00E0DFF834D0002103E00C4B5B5872
:1028B000435004310B480C4B42189A42F6D30B4A52
:1028C00002E0002342F8043B094B9A42F9D3FFF798
:1028D000D3FF03F041FBFFF7A5FA70470000022089
:1028E0003884000800000020A0010020A001002082
:1028F0002C270020FEE7000080B500AF0E4B1B68C0
:102900000D4A43F4007313600B4B1B680A4A43F4EF
:1029100080631360084B1B68074A43F4807313609D
:10292000032000F0F7FC002000F008F8FFF712FD8C
:102930000023184680BD00BF003C024080B582B035
:1029400000AF7860124B1A68124B1B7819464FF48F
:102950007A73B3FBF1F3B2FBF3F3184600F00FFD0B
:102960000346002B01D001230EE07B680F2B0AD811
:10297000002279684FF0FF3000F0D7FC064A7B68F0
:102980001360002300E0012318460837BD4680BDD0
:1029900030010020380100203401002080B400AF55
:1029A000064B1B781A46064B1B681344044A1360F7
:1029B00000BFBD465DF8047B704700BF38010020B2
:1029C0002427002080B400AF034B1B681846BD4687
:1029D0005DF8047B704700BF2427002080B584B0D9
:1029E00000AF7860FFF7EEFFB8607B68FB60FB68C4
:1029F000B3F1FF3F05D0094B1B781A46FB6813441F
:102A0000FB6000BFFFF7DEFF0246BB68D31AFA681F
:102A10009A42F7D800BF1037BD4680BD380100206C
:102A200080B584B000AF78600023FB737B68002B17
:102A300001D1012333E07B681B6C002B09D178683E
:102A4000FFF7B0FC7B6800225A647B68002283F8A1
:102A50003C207B681B6C03F01003002B18D17B68B3
:102A60001B6C23F4885323F0020343F002027B68BB
:102A70001A64786800F082FA7B6800225A647B68E6
:102A80001B6C23F0030343F001027B681A6401E02E
:102A90000123FB737B68002283F83C20FB7B1846F4
:102AA0001037BD4680BD000080B485B000AF7860AF
:102AB0000023BB607B6893F83C30012B01D10223DB
:102AC0008AE07B68012283F83C207B681B689B6856
:102AD00003F00103012B18D07B681B689A687B68A0
:102AE0001B6842F001029A603E4B1B683E4AA2FB03
:102AF00003239A0C13465B001344BB6002E0BB68DF
:102B0000013BBB60BB68002BF9D17B681B689B68ED
:102B100003F00103012B5ED17B681B6C23F4E0639F
:102B200023F0010343F480727B681A647B681B689E
:102B30005B6803F48063002B07D07B681B6C23F475
:102B4000405343F480527B681A647B681B6C03F427
:102B50008053B3F5805F06D17B685B6C23F006027F
:102B60007B685A6402E07B6800225A647B6800221A
:102B700083F83C201D4BFB607B681B686FF02202D2
:102B80001A60FB685B6803F01F03002B0FD17B68A2
:102B90001B689B6803F04053002B1CD17B681B68AB
:102BA0009A687B681B6842F080429A6013E07B68F9
:102BB0001B680F4A93420ED17B681B689B6803F029
:102BC0004053002B07D17B681B689A687B681B68A1
:102BD00042F080429A60002318461437BD465DF8E3
:102BE000047B70473001002083DE1B43002301403B
:102BF0000020014080B584B000AF786039600023C8
:102C0000FB607B681B689B6803F48063B3F5806F8F
:102C100013D17B681B689B6803F48073B3F5807FD6
:102C20000BD17B681B6C43F020027B681A647B68C5
:102C3000002283F83C2001235CE0FFF7C3FEF8602C
:102C40001AE03B68B3F1FF3F16D03B68002B07D07A
:102C5000FFF7B8FE0246FB68D31A3A689A420BD2D5
:102C60007B681B6C43F004027B681A647B6800225B
:102C700083F83C2003233DE07B681B681B6803F05E
:102C80000203022BDDD17B681B686FF012021A6011
:102C90007B681B6C43F400727B681A647B681B685A
:102CA0009B6803F04053002B23D17B681B7E002BD5
:102CB0001FD17B681B68DB6A03F47003002B06D00E
:102CC0007B681B689B6803F48063002B11D17B68D1
:102CD0001B6C23F480727B681A647B681B6C03F4A2
:102CE0008053002B05D17B681B6C43F001027B688D
:102CF0001A64002318461037BD4680BD80B483B0E7
:102D000000AF78607B681B68DB6C18460C37BD46EB
:102D10005DF8047B7047000080B485B000AF786038
:102D200039600023BB607B6893F83C30012B01D1F4
:102D3000022313E17B68012283F83C203B681B6877
:102D4000092B25D97B681B68D9683B681B689BB237
:102D50001A4613465B0013441E3B072202FA03F394
:102D6000DA437B681B680A40DA607B681B68D968B5
:102D70003B689A683B681B689BB2184603465B0039
:102D800003441E3B9A407B681B680A43DA6022E0DA
:102D90007B681B6819693B681B689BB21A4613461F
:102DA0005B001344072202FA03F3DA437B681B68D3
:102DB0000A401A617B681B6819693B689A683B681E
:102DC0001B689BB2184603465B0003449A407B682D
:102DD0001B680A431A613B685B68062B24D87B6832
:102DE0001B68596B3B685A6813469B001344053BAC
:102DF0001F2202FA03F3DA437B681B680A405A6316
:102E00007B681B68596B3B681B689BB218463B6824
:102E10005A6813469B001344053B00FA03F27B6893
:102E20001B680A435A634CE03B685B680C2B24D850
:102E30007B681B68196B3B685A6813469B001344F8
:102E4000233B1F2202FA03F3DA437B681B680A4024
:102E50001A637B681B68196B3B681B689BB218463A
:102E60003B685A6813469B001344233B00FA03F265
:102E70007B681B680A431A6323E07B681B68D96A76
:102E80003B685A6813469B001344413B1F2202FAD9
:102E900003F3DA437B681B680A40DA627B681B68CD
:102EA000D96A3B681B689BB218463B685A68134650
:102EB0009B001344413B00FA03F27B681B680A4302
:102EC000DA62294BFB607B681B68284A93420FD16A
:102ED0003B681B68122B0BD1FB685B6823F4000274
:102EE000FB685A60FB685B6843F48002FB685A60C9
:102EF0007B681B681D4A93422BD13B681B681C4AA8
:102F0000934203D03B681B68112B22D1FB685B689E
:102F100023F48002FB685A60FB685B6843F400029C
:102F2000FB685A603B681B68114A934211D1114BF0
:102F30001B68114AA2FB03239A0C13469B001344FF
:102F40005B00BB6002E0BB68013BBB60BB68002B61
:102F5000F9D17B68002283F83C20002318461437FF
:102F6000BD465DF8047B704700230140002001400E
:102F7000120000103001002083DE1B4380B485B0B6
:102F800000AF7860794BFB60FB685B6823F44032EC
:102F9000FB685A60FB685A687B685B681A43FB6889
:102FA0005A607B681B685A687B681B6822F48072D1
:102FB0005A607B681B6859687B681B691A027B68CA
:102FC0001B680A435A607B681B685A687B681B68E9
:102FD00022F040725A607B681B6859687B689A6867
:102FE0007B681B680A435A607B681B689A687B6829
:102FF0001B6822F400629A607B681B6899687B6892
:10300000DA687B681B680A439A607B689B6A584A47
:10301000934222D07B681B689A687B681B6822F009
:1030200070629A607B681B6899687B689A6A7B68A3
:103030001B680A439A607B681B689A687B681B68F8
:1030400022F040529A607B681B6899687B68DA6A54
:103050007B681B680A439A600FE07B681B689A686C
:103060007B681B6822F070629A607B681B689A68B4
:103070007B681B6822F040529A607B681B689A68E4
:103080007B681B6822F002029A607B681B68996863
:103090007B681B7E5A007B681B680A439A607B68CA
:1030A00093F82030002B1BD07B681B685A687B6824
:1030B0001B6842F400625A607B681B685A687B6830
:1030C0001B6822F460425A607B681B6859687B6801
:1030D0005B6A013B5A037B681B680A435A6007E03E
:1030E0007B681B685A687B681B6822F400625A6020
:1030F0007B681B68DA6A7B681B6822F47002DA62FC
:103100007B681B68D96A7B68DB69013B1A057B68B1
:103110001B680A43DA627B681B689A687B681B68D5
:1031200022F400729A607B681B6899687B6893F848
:1031300030305A027B681B680A439A607B681B68C0
:103140009A687B681B6822F480629A607B681B68BF
:1031500099687B685B699A027B681B680A439A607E
:1031600000BF1437BD465DF8047B70470023014063
:103170000100000F80B485B000AF78607B6803F079
:103180000703FB600C4BDB68BB60BA684FF6FF03BC
:103190001340BB60FB681A02BB68134343F0BF6374
:1031A00043F40033BB60044ABB68D36000BF1437EC
:1031B000BD465DF8047B704700ED00E080B400AFD1
:1031C000044BDB681B0A03F007031846BD465DF895
:1031D000047B704700ED00E080B483B000AF03468D
:1031E000FB7197F90730002B0BDBFB7903F01F0213
:1031F000074997F907305B09012000FA02F241F80C
:10320000232000BF0C37BD465DF8047B704700BF2C
:1032100000E100E080B483B000AF03463960FB7189
:1032200097F90730002B0ADB3B68DAB20C4997F9B3
:1032300007301201D2B20B4483F800230AE03B6846
:10324000DAB20849FB7903F00F03043B1201D2B252
:103250000B441A7600BF0C37BD465DF8047B7047FF
:1032600000E100E000ED00E080B489B000AFF8605C
:10327000B9607A60FB6803F00703FB61FB69C3F187
:103280000703042B28BF0423BB61FB690433062B0F
:1032900002D9FB69033B00E000237B614FF0FF3262
:1032A000BB6902FA03F3DA43BB681A407B699A40B0
:1032B0004FF0FF317B6901FA03F3D9437B680B4080
:1032C000134318462437BD465DF8047B7047000061
:1032D00080B582B000AF78607B68013BB3F1807F3E
:1032E00001D301230FE00A4A7B68013B53600F21A1
:1032F0004FF0FF30FFF78EFF054B00229A60044B22
:1033000007221A60002318460837BD4680BD00BF5B
:1033100010E000E080B582B000AF78607868FFF719
:1033200029FF00BF0837BD4680BD80B586B000AF1D
:103330000346B9607A60FB7300237B61FFF73EFFB1
:1033400078617A68B9687869FFF78EFF024697F965
:103350000F3011461846FFF75DFF00BF1837BD4616
:1033600080BD80B582B000AF0346FB7197F907308E
:103370001846FFF731FF00BF0837BD4680BD80B556
:1033800082B000AF78607868FFF7A2FF0346184666
:103390000837BD4680BD80B483B000AF78607B68DD
:1033A00093F83530DBB2022B04D07B6880225A655B
:1033B00001230CE07B68052283F835207B681B68BD
:1033C0001A687B681B6822F001021A600023184605
:1033D0000C37BD465DF8047B7047000080B489B0AF
:1033E00000AF7860396000237B6100233B610023DC
:1033F000BB610023FB6159E10122FB6902FA03F37F
:103400007B613B681B687A6913403B613A697B6961
:103410009A4240F048813B685B68012B0BD03B68C7
:103420005B68022B07D03B685B68112B03D03B68BD
:103430005B68122B30D17B689B68BB61FB695B00CA
:10344000032202FA03F3DB43BA691340BB613B6812
:10345000DA68FB695B0002FA03F3BA691343BB61E4
:103460007B68BA699A607B685B68BB610122FB6913
:1034700002FA03F3DB43BA691340BB613B685B6844
:103480001B0903F00102FB6902FA03F3BA69134353
:10349000BB617B68BA695A607B68DB68BB61FB69AA
:1034A0005B00032202FA03F3DB43BA691340BB61FA
:1034B0003B689A68FB695B0002FA03F3BA6913433D
:1034C000BB617B68BA69DA603B685B68022B03D03A
:1034D0003B685B68122B23D1FB69DA087B680832F2
:1034E00053F82230BB61FB6903F007039B000F22F6
:1034F00002FA03F3DB43BA691340BB613B681A6904
:10350000FB6903F007039B0002FA03F3BA69134354
:10351000BB61FB69DA087B680832B96943F822109D
:103520007B681B68BB61FB695B00032202FA03F343
:10353000DB43BA691340BB613B685B6803F003027D
:10354000FB695B0002FA03F3BA691343BB617B6852
:10355000BA691A603B685B6803F08053002B00F087
:10356000A2800023FB60564B5B6C554A43F48043BA
:103570005364534B5B6C03F48043FB60FB68514A1C
:10358000FB699B08023352F82330BB61FB6903F0EF
:1035900003039B000F2202FA03F3DB43BA691340D3
:1035A000BB617B68484A934219D07B68474A934283
:1035B00013D07B68464A93420DD07B68454A9342BC
:1035C00007D07B68444A934201D1042308E00723D3
:1035D00006E0032304E0022302E0012300E00023CD
:1035E000FA6902F0030292009340BA691343BB6187
:1035F0003449FB699B080233BA6941F82320374BF1
:103600001B68BB613B69DB43BA691340BB613B6824
:103610005B6803F48033002B03D0BA693B69134322
:10362000BB612E4ABB6913602C4B5B68BB613B6975
:10363000DB43BA691340BB613B685B6803F400334A
:10364000002B03D0BA693B691343BB61234ABB69B2
:103650005360224B9B68BB613B69DB43BA691340F3
:10366000BB613B685B6803F48013002B03D0BA692D
:103670003B691343BB61194ABB699360174BDB6815
:10368000BB613B69DB43BA691340BB613B685B6864
:1036900003F40013002B03D0BA693B691343BB61E9
:1036A0000E4ABB69D360FB690133FB61FB690F2BD9
:1036B0007FF6A2AE00BF2437BD465DF8047B70479D
:1036C000003802400038014000000240000402407F
:1036D00000080240000C024000100240003C014083
:1036E00080B485B000AF78600B467B807B681A6938
:1036F0007B881340002B02D00123FB7301E00023E1
:10370000FB73FB7B18461437BD465DF8047B70479E
:1037100080B483B000AF78600B467B8013467B702B
:103720007B78002B03D07A887B689A6103E07B88E2
:103730001A047B689A6100BF0C37BD465DF8047BB4
:103740007047000080B582B000AF0346FB80084B95
:103750005A69FB881340002B06D0054AFB88536149
:10376000FB881846FEF726FB00BF0837BD4680BD24
:10377000003C014080B586B000AF78607B68002BCC
:1037800001D101235BE27B681B6803F00103002B7E
:1037900075D0A34B9B6803F00C03042B0CD0A04BFB
:1037A0009B6803F00C03082B12D19D4B5B6803F45C
:1037B0008003B3F5800F0BD1994B1B6803F40033E2
:1037C000002B5BD07B685B68002B57D1012336E26E
:1037D0007B685B68B3F5803F06D1914B1B68904ACC
:1037E00043F4803313601DE07B685B68B3F5A02F62
:1037F0000CD18B4B1B688A4A43F480231360884B9F
:103800001B68874A43F4803313600BE0844B1B68CA
:10381000834A23F480331360814B1B68804A23F46E
:10382000802313607B685B68002B13D0FFF7CAF816
:10383000386108E0FFF7C6F802463B69D31A642BEB
:1038400001D90323FBE1764B1B6803F40033002B03
:10385000F0D014E0FFF7B6F8386108E0FFF7B2F8EF
:1038600002463B69D31A642B01D90323E7E16C4B71
:103870001B6803F40033002BF0D100E000BF7B682D
:103880001B6803F00203002B63D0654B9B6803F0B9
:103890000C03002B0BD0624B9B6803F00C03082B2E
:1038A0001CD15F4B5B6803F48003002B16D15C4B8B
:1038B0001B6803F00203002B05D07B68DB68012B3B
:1038C00001D00123BBE1564B1B6823F0F8027B6853
:1038D0001B69DB00524913430B603AE07B68DB68ED
:1038E000002B20D04F4B01221A60FFF76BF8386194
:1038F00008E0FFF767F802463B69D31A022B01D9AB
:1039000003239CE1464B1B6803F00203002BF0D01D
:10391000434B1B6823F0F8027B681B69DB004049BE
:1039200013430B6015E03F4B00221A60FFF74AF883
:10393000386108E0FFF746F802463B69D31A022BCC
:1039400001D903237BE1364B1B6803F00203002BF4
:10395000F0D17B681B6803F00803002B30D07B6834
:103960005B69002B16D0304B01221A60FFF72AF852
:10397000386108E0FFF726F802463B69D31A022BAC
:1039800001D903235BE1264B5B6F03F00203002B9D
:10399000F0D015E0244B00221A60FFF713F83861CD
:1039A00008E0FFF70FF802463B69D31A022B01D952
:1039B000032344E11A4B5B6F03F00203002BF0D1A9
:1039C0007B681B6803F00403002B00F0A080002339
:1039D000FB75134B1B6C03F08053002B0FD100239E
:1039E000BB600F4B1B6C0E4A43F0805313640C4BAF
:1039F0001B6C03F08053BB60BB680123FB750B4B52
:103A00001B6803F48073002B21D1084B1B68074A05
:103A100043F480731360FEF7D5FF386111E000BFF7
:103A20000038024000004742800E474200700040CC
:103A3000FEF7C8FF02463B69D31A022B01D90323C4
:103A4000FDE0814B1B6803F48073002BF0D07B6892
:103A50009B68012B06D17D4B1B6F7C4A43F0010311
:103A600013671CE07B689B68052B0CD1774B1B6FA1
:103A7000764A43F004031367744B1B6F734A43F099
:103A8000010313670BE0714B1B6F704A23F00103B6
:103A900013676E4B1B6F6D4A23F0040313677B683B
:103AA0009B68002B15D0FEF78DFF38610AE0FEF70A
:103AB00089FF02463B69D31A41F28832934201D909
:103AC0000323BCE0614B1B6F03F00203002BEED01D
:103AD00014E0FEF777FF38610AE0FEF773FF024655
:103AE0003B69D31A41F28832934201D90323A6E0FD
:103AF000564B1B6F03F00203002BEED1FB7D012B15
:103B000005D1524B1B6C514A23F0805313647B68E0
:103B10009B69002B00F092804C4B9B6803F00C03D8
:103B2000082B5CD07B689B69022B41D1484B00225B
:103B30001A60FEF747FF386108E0FEF743FF0246D0
:103B40003B69D31A022B01D9032378E03F4B1B6852
:103B500003F00073002BF0D17B68DA697B681B6A85
:103B60001A437B685B6A9B011A437B689B6A5B080C
:103B7000013B1B041A437B68DB6A1B063349134372
:103B80004B60334B01221A60FEF71CFF386108E0DE
:103B9000FEF718FF02463B69D31A022B01D9032313
:103BA0004DE02A4B1B6803F00073002BF0D045E07A
:103BB000274B00221A60FEF705FF386108E0FEF788
:103BC00001FF02463B69D31A022B01D9032336E0D9
:103BD0001E4B1B6803F00073002BF0D12EE07B68B6
:103BE0009B69012B01D1012329E0184B5B68FB6025
:103BF000FB6803F480027B68DB699A421CD1FB6896
:103C000003F03F027B681B6A9A4215D1FA6847F6B7
:103C1000C07313407A68526A93420DD1FB6803F473
:103C200040327B689B6A9A4206D1FB6803F070625F
:103C30007B68DB6A9A4201D0012300E0002318462A
:103C40001837BD4680BD00BF0070004000380240FC
:103C50006000474280B584B000AF786039607B680F
:103C6000002B01D10123CCE0684B1B6803F00F034C
:103C70003A689A420CD9654B3A68D2B21A70634BD3
:103C80001B6803F00F033A689A4201D00123B8E0A1
:103C90007B681B6803F00203002B20D07B681B6845
:103CA00003F00403002B05D0594B9B68584A43F49A
:103CB000E05393607B681B6803F00803002B05D07A
:103CC000534B9B68524A43F460439360504B9B684C
:103CD00023F0F0027B689B684D4913438B607B683F
:103CE0001B6803F00103002B44D07B685B68012B49
:103CF00007D1474B1B6803F40033002B19D1012374
:103D00007FE07B685B68022B03D07B685B68032BDA
:103D100007D13F4B1B6803F00073002B09D101232F
:103D20006FE03B4B1B6803F00203002B01D1012322
:103D300067E0374B9B6823F003027B685B6834497C
:103D400013438B60FEF73EFEF8600AE0FEF73AFE92
:103D50000246FB68D31A41F28832934201D9032309
:103D60004FE02B4B9B6803F00C027B685B689B0069
:103D70009A42EBD1254B1B6803F00F033A689A4235
:103D80000CD2224B3A68D2B21A70204B1B6803F057
:103D90000F033A689A4201D0012332E07B681B6826
:103DA00003F00403002B08D0194B9B6823F4E05266
:103DB0007B68DB68164913438B607B681B6803F0E4
:103DC0000803002B09D0124B9B6823F460427B68E8
:103DD0001B69DB000E4913438B6000F021F801469C
:103DE0000B4B9B681B0903F00F030A4AD35C21FAB3
:103DF00003F3094A1360094B1B681846FEF79EFD42
:103E0000002318461037BD4680BD00BF003C02406D
:103E1000003802407883000830010020340100207F
:103E2000F0B585B000AF00237B600023FB6000236A
:103E30003B600023BB60504B9B6803F00C03042BDA
:103E400007D0082B08D0002B40F08D804B4BBB6077
:103E50008CE04B4BBB6089E0474B5B6803F03F0352
:103E60007B60454B5B6803F48003002B23D0424BFF
:103E70005B689B094FF0000440F2FF114FF0000215
:103E800003EA010504EA02063D4A02FB06F10022AC
:103E900002FB05F20A443A49A5FB010153181946F1
:103EA0007B684FF000041A462346FCF701FA0346EC
:103EB0000C46FB6049E0304B5B689B094FF0000407
:103EC00040F2FF114FF0000203EA010504EA020686
:103ED000294632464FF000034FF00004540144EAF3
:103EE000D1644B0119462246491B62EB06024FF092
:103EF00000034FF00004940144EA91648B015B1AC3
:103F000064EB02044FF000014FF00002E20042EACD
:103F10005372D9000B4614465B1944EB06044FF06C
:103F200000014FF00002A20242EA935299020B46AE
:103F30001446184621467B684FF000041A46234673
:103F4000FCF7B6F903460C46FB600B4B5B681B0C99
:103F500003F0030301335B003B60FA683B68B2FB8C
:103F6000F3F3BB6002E0054BBB6000BFBB681846C3
:103F70001437BD46F0BD00BF003802400024F400F5
:103F800040787D0180B400AF034B1B681846BD46E6
:103F90005DF8047B704700BF3001002080B500AFA2
:103FA000FFF7F0FF0146054B9B689B0A03F00703F0
:103FB000034AD35C21FA03F3184680BD003802405F
:103FC0008883000880B500AFFFF7DCFF0146054B92
:103FD0009B685B0B03F00703034AD35C21FA03F3EE
:103FE000184680BD003802408883000880B582B042
:103FF00000AF78607B68002B01D1012356E07B681D
:1040000000229A627B6893F85130DBB2002B06D114
:104010007B68002283F850207868FEF707FA7B68F7
:10402000022283F851207B681B681A687B681B6832
:1040300022F040021A607B685A687B689B681A43CA
:104040007B68DB681A437B681B691A437B685B6982
:104050001A437B689B6903F400731A437B68DB692E
:104060001A437B681B6A42EA03017B689A6A7B6891
:104070001B680A431A607B689B691B0C03F00401F0
:104080007B685A6A7B681B680A435A607B681B68B6
:10409000DA697B681B6822F40062DA617B680022BF
:1040A0005A657B68012283F851200023184608379F
:1040B000BD4680BD80B588B000AFF860B9603B6098
:1040C0001346FB800023FB77FB6893F85030012BED
:1040D00001D102231EE1FB68012283F85020FEF784
:1040E00071FCB861FB88FB82FB6893F85130DBB24E
:1040F000012B02D00223FB7703E1BB68002B02D027
:10410000FB88002B02D10123FB77FAE0FB68032236
:1041100083F85120FB6800225A65FB68BA681A636D
:10412000FB68FA889A86FB68FA88DA86FB680022C0
:104130009A63FB6800229A87FB680022DA87FB6893
:1041400000225A64FB6800221A64FB689B68B3F57E
:10415000004F07D1FB681B681A68FB681B6842F4B4
:1041600080421A60FB681B681B6803F04003402B09
:1041700007D0FB681B681A68FB681B6842F04002A6
:104180001A60FB68DB68B3F5006F4BD1FB685B68B6
:10419000002B02D0FB8A012B3ED1FB681B6B1A88D7
:1041A000FB681B68DA60FB681B6B9A1CFB681A6370
:1041B000FB68DB8E9BB2013B9AB2FB68DA862BE090
:1041C000FB681B689B6803F00203022B12D1FB689B
:1041D0001B6B1A88FB681B68DA60FB681B6B9A1CF8
:1041E000FB681A63FB68DB8E9BB2013B9AB2FB68EB
:1041F000DA8611E0FEF7E6FB0246BB69D31A3A689D
:104200009A4203D83B68B3F1FF3F02D13B68002BD1
:1042100002D10323FB7774E0FB68DB8E9BB2002B9B
:10422000CED14CE0FB685B68002B02D0FB8A012BEF
:1042300040D1FB681A6BFB681B680C3312781A704C
:10424000FB681B6B5A1CFB681A63FB68DB8E9BB216
:10425000013B9AB2FB68DA862CE0FB681B689B681E
:1042600003F00203022B13D1FB681A6BFB681B6877
:104270000C3312781A70FB681B6B5A1CFB681A63AC
:10428000FB68DB8E9BB2013B9AB2FB68DA8611E0D9
:10429000FEF798FB0246BB69D31A3A689A4203D8E4
:1042A0003B68B3F1FF3F02D13B68002B02D10323EF
:1042B000FB7726E0FB68DB8E9BB2002BCDD1BA6981
:1042C0003968F86800F094F80346002B02D0FB68C8
:1042D00020225A65FB689B68002B0AD100233B61B2
:1042E000FB681B68DB683B61FB681B689B683B6184
:1042F0003B69FB685B6D002B02D00123FB7700E07C
:1043000000BFFB68012283F85120FB68002283F87C
:104310005020FB7F18462037BD4680BD80B584B055
:1043200000AFF860B9603B601346FB714CE03B683E
:10433000B3F1FF3F48D0FEF745FB0246BB69D31AF5
:104340003A689A4202D93B68002B3DD1FB681B6852
:104350005A68FB681B6822F0E0025A60FB685B68E1
:10436000B3F5827F11D1FB689B68B3F5004F04D091
:10437000FB689B68B3F5806F07D1FB681B681A6800
:10438000FB681B6822F040021A60FB689B6AB3F569
:10439000005F0FD1FB681B681A68FB681B6822F47A
:1043A00000521A60FB681B681A68FB681B6842F4BD
:1043B00000521A60FB68012283F85120FB6800223A
:1043C00083F8502003230FE0FB681B689A68BB68E2
:1043D0001340BA689A420CBF01230023DBB21A468D
:1043E000FB799A42A3D1002318461037BD4680BD01
:1043F00080B588B002AFF860B9607A601B4B1B686B
:104400001B4AA2FB03235B0D4FF47A7202FB03F3FA
:104410007B61FB685B68B3F5827F12D17B68009398
:10442000BB6800228021F868FFF778FF0346002B65
:1044300016D0FB685B6D43F02002FB685A650323CE
:104440000FE07B69002B0AD07B69013B7B61FB6835
:104450001B689B6803F08003802BF2D000E000BF54
:10446000002318461837BD4680BD00BF300100202C
:10447000819F5E1680B582B000AF78607B68002BAC
:1044800001D101231DE07B6893F83D30DBB2002BA6
:1044900006D17B68002283F83C207868FEF70EF88E
:1044A0007B68022283F83D207B681A687B680433AE
:1044B0001946104600F0EEF97B68012283F83D2092
:1044C000002318460837BD4680BD80B582B000AFD6
:1044D00078607B68002B01D101231DE07B6893F895
:1044E0003D30DBB2002B06D17B68002283F83C20F4
:1044F000786800F015F87B68022283F83D207B681D
:104500001A687B6804331946104600F0C3F97B68CB
:10451000012283F83D20002318460837BD4680BDA0
:1045200080B483B000AF786000BF0C37BD465DF843
:10453000047B704780B584B000AF786039607B68D9
:104540001B6801223968184600F04AFC7B681B682A
:10455000104A934207D17B681B685A6C7B681B68C2
:1045600042F400425A647B681B689B6803F00703AF
:10457000FB60FB68062B07D07B681B681A687B68AA
:104580001B6842F001021A60002318461037BD462E
:1045900080BD00BF0000014080B584B000AFF8606E
:1045A000B9607A60FB6893F83C30012B01D102239B
:1045B000B4E0FB68012283F83C20FB68022283F808
:1045C0003D207B680C2B00F29F8001A252F823F063
:1045D0000546000809470008094700080947000880
:1045E0004546000809470008094700080947000830
:1045F00087460008094700080947000809470008DE
:10460000C7460008FB681B68B968184600F0C2F985
:10461000FB681B689A69FB681B6842F008029A6194
:10462000FB681B689A69FB681B6822F004029A61A8
:10463000FB681B689969BB681A69FB681B680A43B9
:104640009A6162E0FB681B68B968184600F008FAD6
:10465000FB681B689A69FB681B6842F400629A61F8
:10466000FB681B689A69FB681B6822F480629A6188
:10467000FB681B689969BB681B691A02FB681B68A9
:104680000A439A6141E0FB681B68B968184600F06C
:1046900053FAFB681B68DA69FB681B6842F0080282
:1046A000DA61FB681B68DA69FB681B6822F00402A8
:1046B000DA61FB681B68D969BB681A69FB681B680B
:1046C0000A43DA6121E0FB681B68B968184600F00C
:1046D0009DFAFB681B68DA69FB681B6842F400629C
:1046E000DA61FB681B68DA69FB681B6822F4806288
:1046F000DA61FB681B68D969BB681B691A02FB6831
:104700001B680A43DA6100E000BFFB68012283F8FE
:104710003D20FB68002283F83C2000231846103718
:10472000BD4680BD80B584B000AF786039607B68DD
:1047300093F83C30012B01D10223A6E07B680122D3
:1047400083F83C207B68022283F83D207B681B684D
:104750009B68FB60FB6823F07703FB60FB6823F436
:104760007F43FB607B681B68FA689A603B681B6844
:10477000402B67D0402B0BD8102B73D0102B02D8B6
:10478000002B6FD078E0202B6CD0302B6AD073E0F8
:10479000702B0DD0702B04D8502B33D0602B41D010
:1047A0006AE0B3F5805F66D0B3F5005F17D063E0D1
:1047B0007B6818683B6899683B685A683B68DB68A7
:1047C00000F0EEFA7B681B689B68FB60FB6843F0B7
:1047D0007703FB607B681B68FA689A604CE07B6833
:1047E00018683B6899683B685A683B68DB6800F06A
:1047F000D7FA7B681B689A687B681B6842F4804222
:104800009A6039E07B6818683B6859683B68DB68E8
:104810001A4600F04BFA7B681B685021184600F0DE
:10482000A4FA29E07B6818683B6859683B68DB6834
:104830001A4600F06AFA7B681B686021184600F08F
:1048400094FA19E07B6818683B6859683B68DB6834
:104850001A4600F02BFA7B681B684021184600F0CE
:1048600084FA09E07B681A683B681B6819461046A1
:1048700000F07BFA00E000BF7B68012283F83D2056
:104880007B68002283F83C20002318461037BD4681
:1048900080BD000080B485B000AF786039607B686F
:1048A0001B68FB607B68344A93420FD07B68B3F18E
:1048B000804F0BD07B68314A934207D07B68304AE7
:1048C000934203D07B682F4A934208D1FB6823F0C0
:1048D0007003FB603B685B68FA681343FB607B68AE
:1048E000254A93421BD07B68B3F1804F17D07B6879
:1048F000224A934213D07B68214A93420FD07B68AF
:10490000204A93420BD07B681F4A934207D07B68B2
:104910001E4A934203D07B681D4A934208D1FB682C
:1049200023F44073FB603B68DB68FA681343FB6069
:10493000FB6823F080023B685B691343FB607B6884
:10494000FA681A603B689A687B68DA623B681A68A2
:104950007B689A627B68084A934203D13B681A6974
:104960007B681A637B6801225A6100BF1437BD4619
:104970005DF8047B704700BF000001400004004068
:1049800000080040000C004000400140004401408D
:104990000048014080B487B000AF786039607B6820
:1049A0001B6A23F001027B681A627B681B6A7B61C9
:1049B0007B685B683B617B689B69FB60FB6823F0FD
:1049C0007003FB60FB6823F00303FB603B681B681C
:1049D000FA681343FB607B6923F002037B613B6849
:1049E0009B687A6913437B617B681C4A93420CD1B4
:1049F0007B6923F008037B613B68DB687A691343BA
:104A00007B617B6923F004037B617B68134A9342DB
:104A100011D13B6923F480733B613B6923F400733C
:104A20003B613B685B693A6913433B613B689B6947
:104A30003A6913433B617B683A695A607B68FA685C
:104A40009A613B685A687B685A637B687A691A6224
:104A500000BF1C37BD465DF8047B70470000014075
:104A600080B487B000AF786039607B681B6A23F040
:104A700010027B681A627B681B6A7B617B685B68DB
:104A80003B617B689B69FB60FB6823F4E043FB6050
:104A9000FB6823F44073FB603B681B681B02FA68E9
:104AA0001343FB607B6923F020037B613B689B68B9
:104AB0001B017A6913437B617B681E4A93420DD1C7
:104AC0007B6923F080037B613B68DB681B017A69AB
:104AD00013437B617B6923F040037B617B68154A4C
:104AE000934213D13B6923F480633B613B6923F418
:104AF00000633B613B685B699B003A6913433B6120
:104B00003B689B699B003A6913433B617B683A6948
:104B10005A607B68FA689A613B685A687B689A6356
:104B20007B687A691A6200BF1C37BD465DF8047B5A
:104B3000704700BF0000014080B487B000AF7860CC
:104B400039607B681B6A23F480727B681A627B6819
:104B50001B6A7B617B685B683B617B68DB69FB6030
:104B6000FB6823F07003FB60FB6823F00303FB602A
:104B70003B681B68FA681343FB607B6923F400738E
:104B80007B613B689B681B027A6913437B617B688E
:104B90001D4A93420DD17B6923F400637B613B681E
:104BA000DB681B027A6913437B617B6923F48063B2
:104BB0007B617B68144A934213D13B6923F4805391
:104BC0003B613B6923F400533B613B685B691B011C
:104BD0003A6913433B613B689B691B013A69134384
:104BE0003B617B683A695A607B68FA68DA613B68C6
:104BF0005A687B68DA637B687A691A6200BF1C377F
:104C0000BD465DF8047B70470000014080B487B06A
:104C100000AF786039607B681B6A23F480527B6840
:104C20001A627B681B6A3B617B685B687B617B689F
:104C3000DB69FB60FB6823F4E043FB60FB6823F463
:104C40004073FB603B681B681B02FA681343FB6000
:104C50003B6923F400533B613B689B681B033A6943
:104C600013433B617B68104A934209D17B6923F46B
:104C700080437B613B685B699B017A6913437B617D
:104C80007B687A695A607B68FA68DA613B685A68BF
:104C90007B681A647B683A691A6200BF1C37BD469C
:104CA0005DF8047B704700BF0000014080B487B00E
:104CB00000AFF860B9607A60FB681B6A7B61FB68D3
:104CC0001B6A23F00102FB681A62FB689B693B6167
:104CD0003B6923F0F0033B617B681B013A69134396
:104CE0003B617B6923F00A037B617A69BB681343EC
:104CF0007B61FB683A699A61FB687A691A6200BF56
:104D00001C37BD465DF8047B704780B487B000AFA8
:104D1000F860B9607A60FB681B6A23F01002FB68D8
:104D20001A62FB689B697B61FB681B6A3B617B695C
:104D300023F470437B617B681B037A6913437B61B7
:104D40003B6923F0A0033B61BB681B013A69134335
:104D50003B61FB687A699A61FB683A691A6200BF35
:104D60001C37BD465DF8047B704780B485B000AF4A
:104D7000786039607B689B68FB60FB6823F0700398
:104D8000FB603A68FB68134343F00703FB607B68F2
:104D9000FA689A6000BF1437BD465DF8047B70471F
:104DA00080B487B000AFF860B9607A603B60FB68A0
:104DB0009B687B617B6923F47F437B613B681A02BC
:104DC0007B681A43BB6813437A6913437B61FB68B2
:104DD0007A699A6000BF1C37BD465DF8047B704756
:104DE00080B487B000AFF860B9607A60BB6803F048
:104DF0001F03012202FA03F37B61FB681A6A7B69D5
:104E0000DB431A40FB681A62FB681A6ABB6803F04E
:104E10001F03796801FA03F31A43FB681A6200BFA3
:104E20001C37BD465DF8047B7047000080B485B038
:104E300000AF786039607B6893F83C30012B01D17A
:104E4000022350E07B68012283F83C207B68022229
:104E500083F83D207B681B685B68FB607B681B6890
:104E60009B68BB60FB6823F07003FB603B681B68BA
:104E7000FA681343FB607B681B68FA685A607B68BA
:104E80001B681C4A934218D07B681B68B3F1804FA3
:104E900013D07B681B68184A93420ED07B681B684E
:104EA000164A934209D07B681B68154A934204D086
:104EB0007B681B68134A93420CD1BB6823F08003C4
:104EC000BB603B685B68BA681343BB607B681B6868
:104ED000BA689A607B68012283F83D207B680022D3
:104EE00083F83C20002318461437BD465DF8047B48
:104EF000704700BF0000014000040040000800406F
:104F0000000C00400040014080B582B000AF7860E6
:104F10007B68002B01D101233FE07B6893F8393097
:104F2000DBB2002B06D17B68002283F8382078683A
:104F3000FDF71CFB7B68242283F839207B681B6803
:104F4000DA687B681B6822F40052DA60786800F047
:104F500081FC7B681B681A697B681B6822F490429D
:104F60001A617B681B685A697B681B6822F02A02F9
:104F70005A617B681B68DA687B681B6842F40052E0
:104F8000DA607B680022DA637B68202283F83920AC
:104F90007B68202283F83A20002318460837BD4654
:104FA00080BD80B588B002AFF860B9603B60134641
:104FB000FB8000237B61FB6893F83930DBB2202B48
:104FC00040F08380BB68002B02D0FB88002B01D10E
:104FD00001237BE0FB6893F83830012B01D10223D9
:104FE00074E0FB68012283F83820FB680022DA6352
:104FF000FB68212283F83920FDF7E4FC7861FB6827
:10500000FA889A84FB68FA88DA84FB68002283F8BD
:10501000382042E0FB68DB8C9BB2013B9AB2FB6814
:10502000DA84FB689B68B3F5805F22D13B6800930C
:105030007B6900228021F86800F0A0FA0346002B6B
:1050400001D0032342E0BB683B613B691B881A46E1
:10505000FB681B68C2F308025A60FB681B69002BDF
:1050600003D1BB680233BB6017E0BB680133BB6090
:1050700013E03B6800937B6900228021F86800F010
:105080007DFA0346002B01D003231FE0BB685A1CA6
:10509000BA601A78FB681B685A60FB68DB8C9BB2AD
:1050A000002BB7D13B6800937B6900224021F86850
:1050B00000F064FA0346002B01D0032306E0FB68EE
:1050C000202283F83920002300E0022318461837F5
:1050D000BD4680BD80B588B002AFF860B9603B6066
:1050E0001346FB8000237B61FB6893F83A30DBB208
:1050F000202B40F09080BB68002B02D0FB88002B57
:1051000001D1012388E0FB6893F83830012B01D1ED
:10511000022381E0FB68012283F83820FB6800222B
:10512000DA63FB68222283F83A20FDF74BFC7861B2
:10513000FB68FA889A85FB68FA88DA85FB680022A2
:1051400083F838205CE0FB68DB8D9BB2013B9AB2B0
:10515000FB68DA85FB689B68B3F5805F2BD13B6801
:1051600000937B6900222021F86800F007FA0346CB
:10517000002B01D003234FE0BB683B61FB681B6938
:10518000002B0CD1FB681B685B689BB2C3F3080360
:105190009AB23B691A80BB680233BB6030E0FB689F
:1051A0001B685B689BB2DBB29AB23B691A80BB6832
:1051B0000133BB6024E03B6800937B69002220211F
:1051C000F86800F0DBF90346002B01D0032323E04D
:1051D000FB681B69002B08D1FB681B685968BB681A
:1051E0005A1CBA60CAB21A700AE0FB681B685B6896
:1051F000DAB2BB68591CB96002F07F02D2B21A70F1
:10520000FB68DB8D9BB2002B9DD1FB68202283F8CD
:105210003A20002300E0022318461837BD4680BD1F
:1052200080B485B000AFF860B9601346FB80FB68BE
:1052300093F83930DBB2202B30D1BB68002B02D081
:10524000FB88002B01D1012329E0FB6893F838305B
:10525000012B01D1022322E0FB68012283F83820D0
:10526000FB68BA681A62FB68FA889A84FB68FA8855
:10527000DA84FB680022DA63FB68212283F8392094
:10528000FB68002283F83820FB681B68DA68FB683B
:105290001B6842F08002DA60002300E00223184617
:1052A0001437BD465DF8047B704780B485B000AF0D
:1052B000F860B9601346FB80FB6893F83A30DBB2C4
:1052C000202B40D1BB68002B02D0FB88002B01D1E2
:1052D000012339E0FB6893F83830012B01D1022318
:1052E00032E0FB68012283F83820FB68BA689A62D2
:1052F000FB68FA889A85FB68FA88DA85FB680022E1
:10530000DA63FB68222283F83A20FB68002283F8E4
:105310003820FB681B68DA68FB681B6842F48072FF
:10532000DA60FB681B685A69FB681B6842F001027F
:105330005A61FB681B68DA68FB681B6842F0200250
:10534000DA60002300E0022318461437BD465DF8FA
:10535000047B704780B588B000AF78607B681B68BD
:105360001B68FB617B681B68DB68BB617B681B6833
:105370005B697B6100233B610023FB60FB6903F0F9
:105380000F033B613B69002B0DD1FB6903F0200348
:10539000002B08D0BB6903F02003002B03D07868F2
:1053A00000F0D6F9D1E03B69002B00F0B0807B69BA
:1053B00003F00103002B05D1BB6903F49073002BAC
:1053C00000F0A580FB6903F00103002B0AD0BB6944
:1053D00003F48073002B05D07B68DB6B43F0010284
:1053E0007B68DA63FB6903F00403002B0AD07B6956
:1053F00003F00103002B05D07B68DB6B43F0020256
:105400007B68DA63FB6903F00203002B0AD07B6937
:1054100003F00103002B05D07B68DB6B43F0040233
:105420007B68DA63FB6903F00803002B0FD0BB69CC
:1054300003F02003002B04D17B6903F00103002B50
:1054400005D07B68DB6B43F008027B68DA637B681E
:10545000DB6B002B78D0FB6903F02003002B07D017
:10546000BB6903F02003002B02D0786800F070F9CC
:105470007B681B685B6903F04003402B0CBF012372
:105480000023DBB2FB607B68DB6B03F00803002BBF
:1054900002D1FB68002B31D0786800F0B9F87B6846
:1054A0001B685B6903F04003402B23D17B681B68BA
:1054B0005A697B681B6822F040025A617B685B6B0B
:1054C000002B13D07B685B6B214A1A657B685B6B92
:1054D0001846FDF760FF0346002B16D07B685B6B18
:1054E0001B6D7A68526B104698470EE0786800F0A2
:1054F0003BF80AE0786800F037F806E0786800F0DA
:1055000033F87B680022DA631EE000BF1CE0FB6911
:1055100003F08003002B08D0BB6903F08003002B4D
:1055200003D0786800F0A6F80FE0FB6903F04003B1
:10553000002B0AD0BB6903F04003002B05D078682C
:1055400000F0EEF800BF00E000BF2037BD4680BD90
:105550004D56000880B483B000AF786000BF0C37B0
:10556000BD465DF8047B704780B483B000AF7860BF
:1055700000BF0C37BD465DF8047B704780B584B032
:1055800000AFF860B9603B601346FB712CE0BB696B
:10559000B3F1FF3F28D0BB69002B07D0FDF712FA0B
:1055A00002463B68D31ABA699A421DD2FB681B684F
:1055B000DA68FB681B6822F4D072DA60FB681B684B
:1055C0005A69FB681B6822F001025A61FB682022BD
:1055D00083F83920FB68202283F83A20FB680022F8
:1055E00083F8382003230FE0FB681B681A68BB6848
:1055F0001340BA689A420CBF01230023DBB21A465B
:10560000FB799A42C3D0002318461037BD4680BDAF
:1056100080B483B000AF78607B681B68DA687B6811
:105620001B6822F49072DA607B681B685A697B6899
:105630001B6822F001025A617B68202283F83A201D
:1056400000BF0C37BD465DF8047B704780B584B061
:1056500000AF78607B689B6BFB60FB680022DA859B
:10566000FB680022DA84F868FFF77EFF00BF10377E
:10567000BD4680BD80B485B000AF78607B6893F88C
:105680003930DBB2212B44D17B689B68B3F5805F56
:105690001AD17B681B6AFB60FB681B881A467B6813
:1056A0001B68C2F308025A607B681B69002B05D196
:1056B0007B681B6A9A1C7B681A620EE07B681B6A17
:1056C0005A1C7B681A6208E07B681B6A591C7A685E
:1056D00011621A787B681B685A607B68DB8C9BB20E
:1056E000013B9BB27A681946D184002B0FD17B68AD
:1056F0001B68DA687B681B6822F08002DA607B68CE
:105700001B68DA687B681B6842F04002DA6000239D
:1057100000E0022318461437BD465DF8047B70474D
:1057200080B582B000AF78607B681B68DA687B6800
:105730001B6822F04002DA607B68202283F839205F
:105740007868FFF707FF002318460837BD4680BD7D
:1057500080B584B000AF78607B6893F83A30DBB2F4
:10576000222B71D17B689B68B3F5805F23D17B6866
:105770009B6AFB607B681B69002B0ED17B681B68F2
:105780005B689BB2C3F308039AB2FB681A807B681C
:105790009B6A9A1C7B689A6229E07B681B685B683D
:1057A0009BB2DBB29AB2FB681A807B689B6A5A1C78
:1057B0007B689A621BE07B681B69002B0AD17B68BF
:1057C0001B6858687B689B6A591C7A689162C2B2F0
:1057D0001A700CE07B681B685B68DAB27B689B6AB6
:1057E000581C7968886202F07F02D2B21A707B6816
:1057F000DB8D9BB2013B9BB27A681946D185002BA9
:1058000020D17B681B68DA687B681B6822F0200265
:10581000DA607B681B68DA687B681B6822F4807238
:10582000DA607B681B685A697B681B6822F001029A
:105830005A617B68202283F83A207868FCF76EFA78
:10584000002302E0002300E0022318461037BD4683
:1058500080BD00002DE9F04F85B000AF78607B6817
:105860001B681B6923F440517B68DA687B681B68FE
:105870000A431A617B689A687B681B691A437B68D4
:105880005B691A437B68DB691343FB607B681B68B9
:10589000DB6823F4164323F00C037A681268F96876
:1058A0000B43D3607B681B685B6923F440717B68A2
:1058B0009A697B681B680A435A617B68DB69B3F5A8
:1058C000004F40F08B817B681B68C14A934205D032
:1058D0007B681B68BF4A934240F0BD80FEF772FBB5
:1058E000B860BB681D464FF00006A846B14618EBED
:1058F000080349EB09049846A14618EB050849EB53
:1059000006094FF000014FF000024FEAC90242EAD7
:1059100058724FEAC8018846914618EB050049EBDA
:1059200006017B685B681D464FF000066B1946EB6D
:1059300006041A462346FAF7BBFC03460C461A46F1
:10594000A54BA3FB02235B094FEA0318BB681D4666
:105950004FF00006A946B24619EB09034AEB0A04C8
:105960009946A24619EB05094AEB060A4FF00001D9
:105970004FF000024FEACA0242EA59724FEAC901E7
:105980008946924619EB05004AEB06017B685B6885
:105990001D464FF000066B1946EB06041A462346D7
:1059A000FAF786FC03460C461A468B4BA3FB021300
:1059B0005B09642101FB03F3D31ADB003233864A0F
:1059C000A2FB03235B095B0003F4F8739844BB68F4
:1059D0001D464FF00006A946B24619EB09034AEBF3
:1059E0000A049946A24619EB05094AEB060A4FF04C
:1059F00000014FF000024FEACA0242EA59724FEA30
:105A0000C9018946924619EB05004AEB06017B68FD
:105A10005B681D464FF000066B1946EB06041A46FC
:105A20002346FAF745FC03460C461A466A4BA3FB8D
:105A300002135B09642101FB03F3D31ADB00323349
:105A4000654AA2FB03235B0903F007027B681B681E
:105A500042449A606FE2FEF7A1FAB860BB681D4647
:105A60004FF00006A846B14618EB080349EB0904BD
:105A70009846A14618EB050849EB06094FF00001CE
:105A80004FF000024FEAC90242EA58724FEAC801D9
:105A90008846914618EB050049EB06017B685B6878
:105AA0001D464FF000066B1946EB06041A462346C6
:105AB000FAF7FEFB03460C461A46474BA3FB0223AC
:105AC0005B094FEA0318BB681D464FF00006A94664
:105AD000B24619EB09034AEB0A049946A24619EBB0
