:020000040800F2
:10000000000002208D0D0008B10B0008B70B00089E
:10001000BD0B0008C30B0008C90B0008000000005E
:10002000000000000000000000000000CF0B0008EE
:10003000DD0B000800000000EB0B0008F90B0008C6
:10004000DD0D0008DD0D0008DD0D0008DD0D0008E8
:10005000DD0D0008DD0D0008DD0D0008DD0D0008D8
:10006000DD0D0008DD0D0008DD0D0008DD0D0008C8
:10007000DD0D0008DD0D0008DD0D0008DD0D0008B8
:10008000DD0D0008DD0D0008DD0D0008000000009A
:10009000000000000000000000000000DD0D00086E
:1000A000DD0D0008DD0D0008DD0D0008DD0D000888
:1000B000DD0D0008DD0D0008DD0D0008DD0D000878
:1000C000DD0D0008DD0D0008DD0D0008DD0D000868
:1000D000DD0D0008DD0D0008050C00080000000023
:1000E000DD0D0008DD0D0008DD0D0008000000003A
:1000F000000000000000000000000000DD0D00080E
:1001000000000000DD0D0008DD0D0008DD0D000819
:1001100000000000000000000000000000000000DF
:10012000DD0D0008DD0D0008DD0D0008DD0D000807
:10013000DD0D0008000000000000000000000000CD
:10014000000000000000000000000000DD0D0008BD
:10015000DD0D0008DD0D0008DD0D0008DD0D0008D7
:10016000DD0D0008DD0D00080000000000000000AB
:10017000000000000000000000000000000000007F
:1001800000000000DD0D000800000000000000007D
:08019000DD0D0008DD0D000883
:1001980010B5054C237833B9044B13B10448AFF3B9
:1001A80000800123237010BD7000002000000000B3
:1001B800F839000808B5034B1BB103490348AFF3EE
:1001C800008008BD0000000074000020F839000815
:1001D80053B94AB9002908BF00281CBF4FF0FF31A6
:1001E8004FF0FF3000F072B9ADF1080C6DE904CEA4
:1001F80000F006F8DDF804E0DDE9022304B07047FA
:100208002DE9F047089E04468846002B4BD18A42C8
:10021800154667D9B2FA82F24AB1C2F1200701FA4B
:1002280002F320FA07F7954047EA030894404FEA9B
:10023800154E230CB8FBFEF71FFA85FC0EFB17883A
:1002480043EA084307FB0CF1994209D9EB1807F177
:10025800FF3080F01B81994240F21881023F2B4405
:100268005B1AA4B2B3FBFEF00EFB103344EA03445E
:1002780000FB0CFCA44509D92C1900F1FF3380F0D0
:100288000781A44540F2048102382C4440EA074023
:10029800A4EB0C0400271EB1D4400023C6E9004398
:1002A8003946BDE8F0878B4209D9002E00F0EB8073
:1002B8000027C6E9000138463946BDE8F087B3FA99
:1002C80083F7002F47D18B4202D3824200F2FA8093
:1002D800841A61EB030301209846002EE0D0C6E99A
:1002E8000048DDE702B9FFDEB2FA82F2002A40F0E8
:1002F8008F80491B4FEA154E1FFA85F80127B1FB7D
:10030800FEFC230C0EFB1C1143EA014308FB0CF115
:10031800994207D9EB180CF1FF3002D2994200F24A
:10032800CD808446591AA3B2B1FBFEF00EFB10141F
:1003380043EA044408FB00F8A04507D92C1900F14A
:10034800FF3302D2A04500F2B6801846A4EB080499
:1003580040EA0C409FE7C7F1200CBB4022FA0CFE94
:100368004EEA030E01FA07F420FA0CF521FA0CF311
:100378004FEA1E482543B3FBF8F92C0C08FB193348
:100388001FFA8EFA44EA034309FB0AF49C4202FA74
:1003980007F200FA07F10BD91EEB030309F1FF304E
:1003A80080F087809C4240F28480A9F1020973445E
:1003B8001B1BADB2B3FBF8F008FB103345EA03444E
:1003C80000FB0AFAA24508D91EEB040400F1FF332A
:1003D8006BD2A24569D90238744440EA0940A0FBAF
:1003E8000289A4EB0A044C45C2464B4654D351D06B
:1003F800002E69D0B1EB0A0564EB030404FA0CFC87
:10040800FD40FC404CEA0505C6E90054002747E7D3
:10041800C2F1200320FA03F7954001FA02F021FA0D
:1004280003F34FEA154E3843010CB3FBFEF71FFAEE
:1004380085F80EFB173341EA034107FB08F38B42AB
:1004480004FA02F407D9691807F1FF3C2FD28B424E
:100458002DD9023F2944CB1A81B2B3FBFEF00EFB23
:10046800103341EA034100FB08F38B4207D96918AE
:1004780000F1FF3C17D28B4215D902382944C91A1A
:1004880040EA07473BE73746304609E70746E7E6CD
:100498001846FBE64145ABD2B8EB020A69EB0E02FF
:1004A80001381346A4E76046E9E7184695E767462A
:1004B800D1E781467CE702382C4447E7ACF1020CCF
:1004C8002B442FE7384608E73746E9E6704700BF70
:1004D80080B582B000AF7860391D4FF6FF730122F6
:1004E800034801F000FF7B6818460837BD4680BD09
:1004F800EC04002080B582B000AF78607B681B6890
:10050800164A934226D1164B1B68B3F5806F0DD25D
:10051800134B1B685A1C12490A60124A1178124A76
:10052800D154104B1B780A2B0BD006E00F4B01223D
:100538001A700F4802F050FE0CE00A4B1B780D2B86
:1005480003D10A4B01221A7004E001220549094827
:1005580001F062FF0837BD4680BD00BF004400407F
:1005680090040020940400208C0000208C040020BB
:10057800103A00088405002080B483B000AF00233F
:100588007B6007E00C4A7B68134400221A707B6882
:1005980001337B607A68094B1B689A42F2D3074B98
:1005A80000221A60064B00221A7000BF0C37BD46A5
:1005B8005DF8047B704700BF8C0000209004002089
:1005C8008C04002080B500AF00F006FC00F02AF88B
:1005D80000F066F900F00CF900F038F900F080F846
:1005E80000F0D0F801220949094801F015FF094B2C
:1005F8001B78002BF6D0084B1B689AB210230749CA
:10060800074801F070FEFFF7B7FFEBE794040020FE
:10061800840500208C040020900400208C00002019
:10062800EC04002080B594B000AF07F1200330221D
:100638000021184602F06CFD07F10C0300221A6035
:100648005A609A60DA601A610023BB60224B1B6C07
:10065800214A43F0805313641F4B1B6C03F08053F3
:10066800BB60BB6800237B601C4B1B681B4A43F4C0
:1006780040431360194B1B6803F440437B607B685D
:1006880002233B620123FB6210233B630023BB630D
:1006980007F12003184601F039F90346002B01D071
:1006A80000F026F90F23FB6000233B6100237B61E8
:1006B8000023BB610023FB6107F10C0300211846EE
:1006C80001F094FB0346002B01D000F011F900BFA4
:1006D8005037BD4680BD00BF003802400070004062
:1006E80080B584B000AF3B4600221A605A609A6019
:1006F800DA60214B214A1A601F4B00225A601E4BB8
:1007080000229A601C4B00221A611B4B00221A76A9
:10071800194B002283F82020174B0022DA62164B6F
:10072800174A9A62144B0022DA60134B0122DA61ED
:10073800114B002283F830200F4B01225A610E48DA
:1007480000F0BCFB0346002B01D000F0D1F80623D3
:100758003B6001237B600023BB603B46194606488B
:1007680000F0F0FB0346002B01D000F0C1F800BFF9
:100778001037BD4680BD00BFA40400200020014002
:100788000100000F80B500AF174B184A1A60164BCE
:100798004FF482725A60144B00229A60124B002266
:1007A800DA60114B00221A610F4B00225A610E4B7E
:1007B8004FF400729A610C4B0022DA610A4B002256
:1007C8001A62094B00225A62074B00229A62064BB2
:1007D8000A22DA62044801F0D5FC0346002B01D056
:1007E80000F086F800BF80BD2C05002000300140D5
:1007F80080B500AF124B134A1A60114B4FF4E13227
:100808005A600F4B00229A600D4B0022DA600C4BA5
:1008180000221A610A4B0C225A61094B00229A6184
:10082800074B0022DA61064801F010FD0346002B51
:1008380001D000F05DF8044802F0CEFC00BF80BD96
:10084800EC040020001001402C3A000880B500AFED
:10085800114B124A1A60104B4FF416525A600E4B45
:1008680000229A600C4B0022DA600B4B00221A61BE
:10087800094B0C225A61084B00229A61064B002250
:10088800DA61054801F0E2FC0346002B01D000F0D4
:100898002FF800BF80BD00BF840500200044004041
:1008A80080B483B000AF00237B60104B1B6B0F4AF2
:1008B80043F0010313630D4B1B6B03F001037B60D3
:1008C8007B6800233B60094B1B6B084A43F002031B
:1008D8001363064B1B6B03F002033B603B6800BFCE
:1008E8000C37BD465DF8047B704700BF00380240F6
:1008F80080B400AF72B6FEE780B483B000AF0023C7
:100908007B60104B5B6C0F4A43F4804353640D4B80
:100918005B6C03F480437B607B6800233B60094B7E
:100928001B6C084A43F080531364064B1B6C03F09E
:1009380080533B603B6800BF0C37BD465DF8047BC5
:10094800704700BF0038024080B58AB000AF7860B9
:1009580007F1140300221A605A609A60DA601A617B
:100968007B681B68174A934227D100233B61164BCB
:100978005B6C154A43F480735364134B5B6C03F44C
:1009880080733B613B690023FB600F4B1B6B0E4A76
:1009980043F0010313630C4B1B6B03F00103FB6073
:1009A800FB6840237B610323BB610023FB6107F1E4
:1009B80014031946054800F027FE00BF2837BD4636
:1009C80080BD00BF00200140003802400000024006
:1009D80080B58AB000AF786007F1140300221A606E
:1009E8005A609A60DA601A617B681B68284A9342E9
:1009F80049D100233B61274B5B6C264A43F4805363
:100A08005364244B5B6C03F480533B613B690023C4
:100A1800FB60204B1B6B1F4A43F0010313631D4B04
:100A28001B6B03F00103FB60FB680023BB60194BE1
:100A38001B6B184A43F002031363164B1B6B03F03E
:100A48000203BB60BB68A0237B610223BB61002358
:100A5800FB6103233B6205237B6207F114031946FC
:100A68000D4800F0D1FD10237B610223BB610023F8
:100A7800FB6103233B6205237B6207F114031946DC
:100A8800064800F0C1FD00BF2837BD4680BD00BF45
:100A980000300140003802400000024000040240DB
:100AA80080B58CB000AF786007F11C0300221A6093
:100AB8005A609A60DA601A617B681B68364A93420A
:100AC8002DD10023BB61354B5B6C344A43F01003D6
:100AD8005364324B5B6C03F01003BB61BB690023AA
:100AE8007B612E4B1B6B2D4A43F0010313632B4B89
:100AF8001B6B03F001037B617B694FF4C063FB61EF
:100B080002233B6200237B620323BB620723FB6251
:100B180007F11C031946224800F076FD38E07B688F
:100B28001B68204A934233D100233B611B4B1B6C4B
:100B38001A4A43F400331364184B1B6C03F4003354
:100B48003B613B690023FB60144B1B6B134A43F06A
:100B580001031363114B1B6B03F00103FB60FB687C
:100B68000C23FB6102233B6200237B620323BB62ED
:100B78000723FB6207F11C031946094800F044FDEE
:100B880000220021262000F0E6FC262000F0FFFCD1
:100B980000BF3037BD4680BD00100140003802401C
:100BA800000002400044004080B400AFFEE780B47B
:100BB80000AFFEE780B400AFFEE780B400AFFEE709
:100BC80080B400AFFEE780B400AF00BFBD465DF85B
:100BD800047B704780B400AF00BFBD465DF8047B5E
:100BE800704780B400AF00BFBD465DF8047B704716
:100BF80080B500AF00F042F900BF80BD80B500AFFE
:100C0800024801F05FFC00BF80BD00BF84050020E2
:100C180080B586B000AFF860B9607A6000237B6168
:100C28000AE0AFF300800146BB685A1CBA60CAB23A
:100C38001A707B6901337B617A697B689A42F0DBC1
:100C48007B6818461837BD4680BD80B586B000AFB2
:100C5800F860B9607A6000237B6109E0BB685A1CC0
:100C6800BA601B781846FFF733FC7B6901337B6158
:100C78007A697B689A42F1DB7B6818461837BD466B
:100C880080BD80B483B000AF78604FF0FF33184662
:100C98000C37BD465DF8047B704780B483B000AF65
:100CA800786039603B684FF400525A600023184658
:100CB8000C37BD465DF8047B704780B483B000AF45
:100CC8007860012318460C37BD465DF8047B7047F1
:100CD80080B485B000AFF860B9607A600023184628
:100CE8001437BD465DF8047B7047000080B586B0B8
:100CF80000AF7860144A154BD31A7B617B693B615E
:100D0800134B1B68002B02D1114B124A1A60104B6F
:100D18001A687B6813443A699A4207D202F0CEF9FE
:100D280002460C2313604FF0FF3309E0084B1B68A1
:100D3800FB60074B1A687B681344054A1360FB681D
:100D480018461837BD4680BD000002200004000088
:100D580098040020D005002080B400AF084BD3F8D9
:100D68008830074A43F47003C2F88830044B4FF0C8
:100D780000629A6000BFBD465DF8047B704700BF03
:100D880000ED00E0DFF834D0002103E00C4B5B58A5
:100D9800435004310B480C4B42189A42F6D30B4A85
:100DA80002E0002342F8043B094B9A42F9D3FFF7CB
:100DB800D3FF02F089F9FFF705FC70470000022015
:100DC800CC3A0008000000207000002070000020CD
:100DD800CC050020FEE7000080B500AF0E4B1B6875
:100DE8000D4A43F4007313600B4B1B680A4A43F423
:100DF80080631360084B1B68074A43F480731360D1
:100E0800032000F09DFB002000F008F8FFF774FDB8
:100E18000023184680BD00BF003C024080B582B068
:100E280000AF7860124B1A68124B1B7819464FF4C2
:100E38007A73B3FBF1F3B2FBF3F3184600F0B5FB9A
:100E48000346002B01D001230EE07B680F2B0AD844
:100E5800002279684FF0FF3000F07DFB064A7B687E
:100E68001360002300E0012318460837BD4680BD03
:100E780000000020080000200400002080B400AF1B
:100E8800064B1B781A46064B1B681344044A13602A
:100E980000BFBD465DF8047B704700BF0800002016
:100EA800C405002080B400AF034B1B681846BD463C
:100EB8005DF8047B704700BFC405002080B584B08E
:100EC80000AF78600023FB737B68002B01D10123FE
:100ED80033E07B681B6C002B09D17868FFF734FD81
:100EE8007B6800225A647B68002283F83C207B6878
:100EF8001B6C03F01003002B18D17B681B6C23F4C8
:100F0800885323F0020343F002027B681A6478686E
:100F180000F04AF97B6800225A647B681B6C23F056
:100F2800030343F001027B681A6401E00123FB73A9
:100F38007B68002283F83C20FB7B18461037BD46AF
:100F480080BD000080B485B000AF786039600023B0
:100F5800BB607B6893F83C30012B01D1022313E17D
:100F68007B68012283F83C203B681B68092B25D944
:100F78007B681B68D9683B681B689BB21A46134696
:100F88005B0013441E3B072202FA03F3DA437B6833
:100F98001B680A40DA607B681B68D9683B689A68F6
:100FA8003B681B689BB2184603465B0003441E3B24
:100FB8009A407B681B680A43DA6022E07B681B68FA
:100FC80019693B681B689BB21A4613465B001344B9
:100FD800072202FA03F3DA437B681B680A401A61A6
:100FE8007B681B6819693B689A683B681B689BB2F9
:100FF800184603465B0003449A407B681B680A4313
:101008001A613B685B68062B24D87B681B68596BA0
:101018003B685A6813469B001344053B1F2202FA9B
:1010280003F3DA437B681B680A405A637B681B68D2
:10103800596B3B681B689BB218463B685A68134655
:101048009B001344053B00FA03F27B681B680A43C4
:101058005A634CE03B685B680C2B24D87B681B68A0
:10106800196B3B685A6813469B001344233B1F22A5
:1010780002FA03F3DA437B681B680A401A637B6849
:101088001B68196B3B681B689BB218463B685A681B
:1010980013469B001344233B00FA03F27B681B684A
:1010A8000A431A6323E07B681B68D96A3B685A685D
:1010B80013469B001344413B1F2202FA03F3DA4311
:1010C8007B681B680A40DA627B681B68D96A3B68E0
:1010D8001B689BB218463B685A6813469B0013442A
:1010E800413B00FA03F27B681B680A43DA62294B2A
:1010F800FB607B681B68284A93420FD13B681B68DA
:10110800122B0BD1FB685B6823F40002FB685A6062
:10111800FB685B6843F48002FB685A607B681B6865
:101128001D4A93422BD13B681B681C4A934203D04B
:101138003B681B68112B22D1FB685B6823F4800293
:10114800FB685A60FB685B6843F40002FB685A60FE
:101158003B681B68114A934211D1114B1B68114A15
:10116800A2FB03239A0C13469B0013445B00BB604D
:1011780002E0BB68013BBB60BB68002BF9D17B6810
:10118800002283F83C20002318461437BD465DF83A
:10119800047B70470023014000200140120000102A
:1011A8000000002083DE1B4380B485B000AF786068
:1011B800794BFB60FB685B6823F44032FB685A603C
:1011C800FB685A687B685B681A43FB685A607B68EF
:1011D8001B685A687B681B6822F480725A607B68B7
:1011E8001B6859687B681B691A027B681B680A437D
:1011F8005A607B681B685A687B681B6822F04072DB
:101208005A607B681B6859687B689A687B681B68AA
:101218000A435A607B681B689A687B681B6822F4DB
:1012280000629A607B681B6899687B68DA687B68EB
:101238001B680A439A607B689B6A584A934222D08B
:101248007B681B689A687B681B6822F070629A60EA
:101258007B681B6899687B689A6A7B681B680A4385
:101268009A607B681B689A687B681B6822F040520A
:101278009A607B681B6899687B68DA6A7B681B6878
:101288000A439A600FE07B681B689A687B681B6852
:1012980022F070629A607B681B689A687B681B689A
:1012A80022F040529A607B681B689A687B681B68CA
:1012B80022F002029A607B681B6899687B681B7E33
:1012C8005A007B681B680A439A607B6893F8203051
:1012D800002B1BD07B681B685A687B681B6842F42C
:1012E80000625A607B681B685A687B681B6822F436
:1012F80060425A607B681B6859687B685B6A013B7F
:101308005A037B681B680A435A6007E07B681B68BE
:101318005A687B681B6822F400625A607B681B6805
:10132800DA6A7B681B6822F47002DA627B681B68E1
:10133800D96A7B68DB69013B1A057B681B680A432D
:10134800DA627B681B689A687B681B6822F4007203
:101358009A607B681B6899687B6893F830305A02FA
:101368007B681B680A439A607B681B689A687B687D
:101378001B6822F480629A607B681B6899687B68A6
:101388005B699A027B681B680A439A6000BF14373E
:10139800BD465DF8047B7047002301400100000F43
:1013A80080B485B000AF78607B6803F00703FB600A
:1013B8000C4BDB68BB60BA684FF6FF031340BB6099
:1013C800FB681A02BB68134343F0BF6343F400335E
:1013D800BB60044ABB68D36000BF1437BD465DF8E4
:1013E800047B704700ED00E080B400AF044BDB687D
:1013F8001B0A03F007031846BD465DF8047B7047D7
:1014080000ED00E080B483B000AF0346FB7197F9AC
:101418000730002B0BDBFB7903F01F02074997F914
:1014280007305B09012000FA02F241F8232000BFCF
:101438000C37BD465DF8047B704700BF00E100E053
:1014480080B483B000AF03463960FB7197F9073069
:10145800002B0ADB3B68DAB20C4997F90730120116
:10146800D2B20B4483F800230AE03B68DAB2084999
:10147800FB7903F00F03043B1201D2B20B441A7636
:1014880000BF0C37BD465DF8047B704700E100E003
:1014980000ED00E080B489B000AFF860B9607A6010
:1014A800FB6803F00703FB61FB69C3F10703042B27
:1014B80028BF0423BB61FB690433062B02D9FB69EF
:1014C800033B00E000237B614FF0FF32BB6902FA67
:1014D80003F3DA43BB681A407B699A404FF0FF3147
:1014E8007B6901FA03F3D9437B680B401343184621
:1014F8002437BD465DF8047B7047000080B582B094
:1015080000AF78607B68013BB3F1807F01D3012392
:101518000FE00A4A7B68013B53600F214FF0FF3010
:10152800FFF78EFF054B00229A60044B07221A60D2
:10153800002318460837BD4680BD00BF10E000E014
:1015480080B582B000AF78607868FFF729FF00BFE8
:101558000837BD4680BD80B586B000AF0346B96088
:101568007A60FB7300237B61FFF73EFF78617A683E
:10157800B9687869FFF78EFF024697F90F30114670
:101588001846FFF75DFF00BF1837BD4680BD80B520
:1015980082B000AF0346FB7197F907301846FFF792
:1015A80031FF00BF0837BD4680BD80B582B000AFAF
:1015B80078607868FFF7A2FF034618460837BD46EB
:1015C80080BD80B483B000AF78607B6893F8353015
:1015D800DBB2022B04D07B6880225A6501230CE021
:1015E8007B68052283F835207B681B681A687B684E
:1015F8001B6822F001021A60002318460C37BD460A
:101608005DF8047B7047000080B489B000AF786053
:10161800396000237B6100233B610023BB61002309
:10162800FB6159E10122FB6902FA03F37B613B6824
:101638001B687A6913403B613A697B699A4240F0BA
:1016480048813B685B68012B0BD03B685B68022BC9
:1016580007D03B685B68112B03D03B685B68122B93
:1016680030D17B689B68BB61FB695B00032202FA8F
:1016780003F3DB43BA691340BB613B68DA68FB6973
:101688005B0002FA03F3BA691343BB617B68BA696A
:101698009A607B685B68BB610122FB6902FA03F30D
:1016A800DB43BA691340BB613B685B681B0903F005
:1016B8000102FB6902FA03F3BA691343BB617B6851
:1016C800BA695A607B68DB68BB61FB695B0003220F
:1016D80002FA03F3DB43BA691340BB613B689A68BB
:1016E800FB695B0002FA03F3BA691343BB617B68C9
:1016F800BA69DA603B685B68022B03D03B685B68B9
:10170800122B23D1FB69DA087B68083253F82230A0
:10171800BB61FB6903F007039B000F2202FA03F386
:10172800DB43BA691340BB613B681A69FB6903F084
:1017380007039B0002FA03F3BA691343BB61FB6911
:10174800DA087B680832B96943F822107B681B689D
:10175800BB61FB695B00032202FA03F3DB43BA694E
:101768001340BB613B685B6803F00302FB695B00E5
:1017780002FA03F3BA691343BB617B68BA691A605A
:101788003B685B6803F08053002B00F0A2800023C5
:10179800FB60564B5B6C554A43F480435364534B90
:1017A8005B6C03F48043FB60FB68514AFB699B0850
:1017B800023352F82330BB61FB6903F003039B003B
:1017C8000F2202FA03F3DB43BA691340BB617B685B
:1017D800484A934219D07B68474A934213D07B68A2
:1017E800464A93420DD07B68454A934207D07B68AE
:1017F800444A934201D1042308E0072306E0032367
:1018080004E0022302E0012300E00023FA6902F069
:10181800030292009340BA691343BB613449FB69E0
:101828009B080233BA6941F82320374B1B68BB6118
:101838003B69DB43BA691340BB613B685B6803F4EF
:101848008033002B03D0BA693B691343BB612E4A2E
:10185800BB6913602C4B5B68BB613B69DB43BA69AE
:101868001340BB613B685B6803F40033002B03D073
:10187800BA693B691343BB61234ABB695360224B76
:101888009B68BB613B69DB43BA691340BB613B683A
:101898005B6803F48013002B03D0BA693B691343D8
:1018A800BB61194ABB699360174BDB68BB613B6935
:1018B800DB43BA691340BB613B685B6803F4001300
:1018C800002B03D0BA693B691343BB610E4ABB695D
:1018D800D360FB690133FB61FB690F2B7FF6A2AE76
:1018E80000BF2437BD465DF8047B704700380240CE
:1018F8000038014000000240000402400008024095
:10190800000C024000100240003C014080B586B047
:1019180000AF78607B68002B01D101235BE27B6814
:101928001B6803F00103002B75D0A34B9B6803F0E1
:101938000C03042B0CD0A04B9B6803F00C03082B62
:1019480012D19D4B5B6803F48003B3F5800F0BD174
:10195800994B1B6803F40033002B5BD07B685B68F2
:10196800002B57D1012336E27B685B68B3F5803FD3
:1019780006D1914B1B68904A43F4803313601DE0F5
:101988007B685B68B3F5A02F0CD18B4B1B688A4A28
:1019980043F480231360884B1B68874A43F48033E1
:1019A80013600BE0844B1B68834A23F48033136075
:1019B800814B1B68804A23F4802313607B685B6833
:1019C800002B13D0FFF76EFA386108E0FFF76AFAC8
:1019D80002463B69D31A642B01D90323FBE1764BFA
:1019E8001B6803F40033002BF0D014E0FFF75AFA19
:1019F800386108E0FFF756FA02463B69D31A642BB0
:101A080001D90323E7E16C4B1B6803F40033002B77
:101A1800F0D100E000BF7B681B6803F00203002BD5
:101A280063D0654B9B6803F00C03002B0BD0624B13
:101A38009B6803F00C03082B1CD15F4B5B6803F415
:101A48008003002B16D15C4B1B6803F00203002BAC
:101A580005D07B68DB68012B01D00123BBE1564B25
:101A68001B6823F0F8027B681B69DB0052491343AB
:101A78000B603AE07B68DB68002B20D04F4B0122DB
:101A88001A60FFF70FFA386108E0FFF70BFA024611
:101A98003B69D31A022B01D903239CE1464B1B68EF
:101AA80003F00203002BF0D0434B1B6823F0F8022D
:101AB8007B681B69DB00404913430B6015E03F4B13
:101AC80000221A60FFF7EEF9386108E0FFF7EAF93B
:101AD80002463B69D31A022B01D903237BE1364B1B
:101AE8001B6803F00203002BF0D17B681B6803F02E
:101AF8000803002B30D07B685B69002B16D0304B75
:101B080001221A60FFF7CEF9386108E0FFF7CAF939
:101B180002463B69D31A022B01D903235BE1264B0A
:101B28005B6F03F00203002BF0D015E0244B00227A
:101B38001A60FFF7B7F9386108E0FFF7B3F9024612
:101B48003B69D31A022B01D9032344E11A4B5B6F7B
:101B580003F00203002BF0D17B681B6803F0040339
:101B6800002B00F0A0800023FB75134B1B6C03F0C7
:101B78008053002B0FD10023BB600F4B1B6C0E4A08
:101B880043F0805313640C4B1B6C03F08053BB6011
:101B9800BB680123FB750B4B1B6803F48073002B98
:101BA80021D1084B1B68074A43F480731360FFF781
:101BB80079F9386111E000BF00380240000047425F
:101BC800800E474200700040FFF76CF902463B69FF
:101BD800D31A022B01D90323FDE0814B1B6803F4C0
:101BE8008073002BF0D07B689B68012B06D17D4B5E
:101BF8001B6F7C4A43F0010313671CE07B689B68FA
:101C0800052B0CD1774B1B6F764A43F004031367FF
:101C1800744B1B6F734A43F0010313670BE0714B5E
:101C28001B6F704A23F0010313676E4B1B6F6D4ADD
:101C380023F0040313677B689B68002B15D0FFF71C
:101C480031F938610AE0FFF72DF902463B69D31AEA
:101C580041F28832934201D90323BCE0614B1B6FE8
:101C680003F00203002BEED014E0FFF71BF93861F4
:101C78000AE0FFF717F902463B69D31A41F28832A6
:101C8800934201D90323A6E0564B1B6F03F00203CE
:101C9800002BEED1FB7D012B05D1524B1B6C514A19
:101CA80023F0805313647B689B69002B00F09280BB
:101CB8004C4B9B6803F00C03082B5CD07B689B693A
:101CC800022B41D1484B00221A60FFF7EBF838612C
:101CD80008E0FFF7E7F802463B69D31A022B01D95F
:101CE800032378E03F4B1B6803F00073002BF0D10F
:101CF8007B68DA697B681B6A1A437B685B6A9B01AD
:101D08001A437B689B6A5B08013B1B041A437B6888
:101D1800DB6A1B06334913434B60334B01221A60BD
:101D2800FFF7C0F8386108E0FFF7BCF802463B69E6
:101D3800D31A022B01D903234DE02A4B1B6803F069
:101D48000073002BF0D045E0274B00221A60FFF704
:101D5800A9F8386108E0FFF7A5F802463B69D31AED
:101D6800022B01D9032336E01E4B1B6803F00073D6
:101D7800002BF0D12EE07B689B69012B01D1012358
:101D880029E0184B5B68FB60FB6803F480027B6802
:101D9800DB699A421CD1FB6803F03F027B681B6A2F
:101DA8009A4215D1FA6847F6C07313407A68526AA6
:101DB80093420DD1FB6803F440327B689B6A9A42D8
:101DC80006D1FB6803F070627B68DB6A9A4201D037
:101DD800012300E0002318461837BD4680BD00BF28
:101DE80000700040003802406000474280B584B06F
:101DF80000AF786039607B68002B01D10123CCE00B
:101E0800684B1B6803F00F033A689A420CD9654B7C
:101E18003A68D2B21A70634B1B6803F00F033A6832
:101E28009A4201D00123B8E07B681B6803F00203E3
:101E3800002B20D07B681B6803F00403002B05D01F
:101E4800594B9B68584A43F4E05393607B681B687E
:101E580003F00803002B05D0534B9B68524A43F408
:101E680060439360504B9B6823F0F0027B689B684B
:101E78004D4913438B607B681B6803F00103002BFB
:101E880044D07B685B68012B07D1474B1B6803F480
:101E98000033002B19D101237FE07B685B68022B9C
:101EA80003D07B685B68032B07D13F4B1B6803F0AB
:101EB8000073002B09D101236FE03B4B1B6803F033
:101EC8000203002B01D1012367E0374B9B6823F005
:101ED80003027B685B68344913438B60FEF7E2FFBB
:101EE800F8600AE0FEF7DEFF0246FB68D31A41F20B
:101EF8008832934201D903234FE02B4B9B6803F0B0
:101F08000C027B685B689B009A42EBD1254B1B68EF
:101F180003F00F033A689A420CD2224B3A68D2B2C5
:101F28001A70204B1B6803F00F033A689A4201D0DD
:101F3800012332E07B681B6803F00403002B08D000
:101F4800194B9B6823F4E0527B68DB6816491343FE
:101F58008B607B681B6803F00803002B09D0124BC9
:101F68009B6823F460427B681B69DB000E491343BE
:101F78008B6000F021F801460B4B9B681B0903F0AE
:101F88000F030A4AD35C21FA03F3094A1360094B89
:101F98001B681846FEF742FF002318461037BD4657
:101FA80080BD00BF003C024000380240403A0008B3
:101FB8000000002004000020F0B585B000AF002329
:101FC8007B600023FB6000233B600023BB60504B19
:101FD8009B6803F00C03042B07D0082B08D0002BB8
:101FE80040F08D804B4BBB608CE04B4BBB6089E075
:101FF800474B5B6803F03F037B60454B5B6803F42A
:102008008003002B23D0424B5B689B094FF00004F0
:1020180040F2FF114FF0000203EA010504EA02064C
:102028003D4A02FB06F1002202FB05F20A443A4946
:10203800A5FB0101531819467B684FF000041A46A6
:102048002346FEF7C5F803460C46FB6049E0304BD3
:102058005B689B094FF0000440F2FF114FF000024B
:1020680003EA010504EA0206294632464FF0000356
:102078004FF00004540144EAD1644B01194622464A
:10208800491B62EB06024FF000034FF00004940175
:1020980044EA91648B015B1A64EB02044FF000017F
:1020A8004FF00002E20042EA5372D9000B46144690
:1020B8005B1944EB06044FF000014FF00002A20246
:1020C80042EA935299020B461446184621467B6809
:1020D8004FF000041A462346FEF77AF803460C46EA
:1020E800FB600B4B5B681B0C03F0030301335B00C5
:1020F8003B60FA683B68B2FBF3F3BB6002E0054B58
:10210800BB6000BFBB6818461437BD46F0BD00BFB2
:10211800003802400024F40040787D0180B400AF0C
:10212800034B1B681846BD465DF8047B704700BF2B
:102138000000002080B500AFFFF7F0FF0146054B17
:102148009B689B0A03F00703034AD35C21FA03F355
:10215800184680BD00380240503A000880B500AFEC
:10216800FFF7DCFF0146054B9B685B0B03F0070399
:10217800034AD35C21FA03F3184680BD00380240B5
:10218800503A000880B582B000AF78607B68002BB9
:1021980001D1012356E07B6800229A627B6893F89C
:1021A8005130DBB2002B06D17B68002283F8502027
:1021B8007868FEF70DFC7B68022283F851207B6863
:1021C8001B681A687B681B6822F040021A607B68EB
:1021D8005A687B689B681A437B68DB681A437B688C
:1021E8001B691A437B685B691A437B689B6903F424
:1021F80000731A437B68DB691A437B681B6A42EAEF
:1022080003017B689A6A7B681B680A431A607B68CB
:102218009B691B0C03F004017B685A6A7B681B6886
:102228000A435A607B681B68DA697B681B6822F47A
:102238000062DA617B6800225A657B68012283F8B4
:102248005120002318460837BD4680BD80B582B0AE
:1022580000AF78607B68002B01D101233FE07B68E9
:1022680093F83930DBB2002B06D17B68002283F863
:1022780038207868FEF714FC7B68242283F839201C
:102288007B681B68DA687B681B6822F40052DA6096
:10229800786800F097FB7B681B681A697B681B6885
:1022A80022F490421A617B681B685A697B681B6834
:1022B80022F02A025A617B681B68DA687B681B680F
:1022C80042F40052DA607B680022DA637B682022DD
:1022D80083F839207B68202283F83A2000231846A7
:1022E8000837BD4680BD80B588B002AFF860B960D8
:1022F8003B601346FB8000237B61FB6893F8393011
:10230800DBB2202B40F08380BB68002B02D0FB8817
:10231800002B01D101237BE0FB6893F83830012BB7
:1023280001D1022374E0FB68012283F83820FB689E
:102338000022DA63FB68212283F83920FEF7B2FD18
:102348007861FB68FA889A84FB68FA88DA84FB6803
:10235800002283F8382042E0FB68DB8C9BB2013B0B
:102368009AB2FB68DA84FB689B68B3F5805F22D178
:102378003B6800937B6900228021F86800F0B6F979
:102388000346002B01D0032342E0BB683B613B6955
:102398001B881A46FB681B68C2F308025A60FB6870
:1023A8001B69002B03D1BB680233BB6017E0BB6815
:1023B8000133BB6013E03B6800937B6900228021F6
:1023C800F86800F093F90346002B01D003231FE0BF
:1023D800BB685A1CBA601A78FB681B685A60FB68AD
:1023E800DB8C9BB2002BB7D13B6800937B69002242
:1023F8004021F86800F07AF90346002B01D0032346
:1024080006E0FB68202283F83920002300E002233D
:1024180018461837BD4680BD80B485B000AFF86057
:10242800B9601346FB80FB6893F83A30DBB2202B87
:1024380040D1BB68002B02D0FB88002B01D10123BF
:1024480039E0FB6893F83830012B01D1022332E0E0
:10245800FB68012283F83820FB68BA689A62FB6837
:10246800FA889A85FB68FA88DA85FB680022DA63BD
:10247800FB68222283F83A20FB68002283F8382080
:10248800FB681B68DA68FB681B6842F48072DA60D4
:10249800FB681B685A69FB681B6842F001025A61B5
:1024A800FB681B68DA68FB681B6842F02002DA6088
:1024B800002300E0022318461437BD465DF8047B6C
:1024C8007047000080B588B000AF78607B681B68F3
:1024D8001B68FB617B681B68DB68BB617B681B68EA
:1024E8005B697B6100233B610023FB60FB6903F0B0
:1024F8000F033B613B69002B0DD1FB6903F02003FF
:10250800002B08D0BB6903F02003002B03D07868A8
:1025180000F0D6F9D1E03B69002B00F0B0807B6970
:1025280003F00103002B05D1BB6903F49073002B62
:1025380000F0A580FB6903F00103002B0AD0BB69FA
:1025480003F48073002B05D07B68DB6B43F001023A
:102558007B68DA63FB6903F00403002B0AD07B690C
:1025680003F00103002B05D07B68DB6B43F002020C
:102578007B68DA63FB6903F00203002B0AD07B69EE
:1025880003F00103002B05D07B68DB6B43F00402EA
:102598007B68DA63FB6903F00803002B0FD0BB6983
:1025A80003F02003002B04D17B6903F00103002B07
:1025B80005D07B68DB6B43F008027B68DA637B68D5
:1025C800DB6B002B78D0FB6903F02003002B07D0CE
:1025D800BB6903F02003002B02D0786800F070F983
:1025E8007B681B685B6903F04003402B0CBF012329
:1025F8000023DBB2FB607B68DB6B03F00803002B76
:1026080002D1FB68002B31D0786800F0B9F87B68FC
:102618001B685B6903F04003402B23D17B681B6870
:102628005A697B681B6822F040025A617B685B6BC1
:10263800002B13D07B685B6B214A1A657B685B6B48
:102648001846FEF7BEFF0346002B16D07B685B6B6F
:102658001B6D7A68526B104698470EE0786800F058
:102668003BF80AE0786800F037F806E0786800F090
:1026780033F87B680022DA631EE000BF1CE0FB69C8
:1026880003F08003002B08D0BB6903F08003002B04
:1026980003D0786800F0A6F80FE0FB6903F0400368
:1026A800002B0AD0BB6903F04003002B05D07868E3
:1026B80000F0EEF800BF00E000BF2037BD4680BD47
:1026C800C527000880B483B000AF786000BF0C371E
:1026D800BD465DF8047B704780B483B000AF786076
:1026E80000BF0C37BD465DF8047B704780B584B0E9
:1026F80000AFF860B9603B601346FB712CE0BB6922
:10270800B3F1FF3F28D0BB69002B07D0FEF7CAFB07
:1027180002463B68D31ABA699A421DD2FB681B6805
:10272800DA68FB681B6822F4D072DA60FB681B6801
:102738005A69FB681B6822F001025A61FB68202273
:1027480083F83920FB68202283F83A20FB680022AE
:1027580083F8382003230FE0FB681B681A68BB68FE
:102768001340BA689A420CBF01230023DBB21A4611
:10277800FB799A42C3D0002318461037BD4680BD66
:1027880080B483B000AF78607B681B68DA687B68C8
:102798001B6822F49072DA607B681B685A697B6850
:1027A8001B6822F001025A617B68202283F83A20D4
:1027B80000BF0C37BD465DF8047B704780B584B018
:1027C80000AF78607B689B6BFB60FB680022DA8552
:1027D800FB680022DA84F868FFF77EFF00BF103735
:1027E800BD4680BD80B485B000AF78607B6893F843
:1027F8003930DBB2212B44D17B689B68B3F5805F0D
:102808001AD17B681B6AFB60FB681B881A467B68C9
:102818001B68C2F308025A607B681B69002B05D14C
:102828007B681B6A9A1C7B681A620EE07B681B6ACD
:102838005A1C7B681A6208E07B681B6A591C7A6814
:1028480011621A787B681B685A607B68DB8C9BB2C4
:10285800013B9BB27A681946D184002B0FD17B6863
:102868001B68DA687B681B6822F08002DA607B6884
:102878001B68DA687B681B6842F04002DA60002354
:1028880000E0022318461437BD465DF8047B704704
:1028980080B582B000AF78607B681B68DA687B68B7
:1028A8001B6822F04002DA607B68202283F8392016
:1028B8007868FFF707FF002318460837BD4680BD34
:1028C80080B584B000AF78607B6893F83A30DBB2AB
:1028D800222B71D17B689B68B3F5805F23D17B681D
:1028E8009B6AFB607B681B69002B0ED17B681B68A9
:1028F8005B689BB2C3F308039AB2FB681A807B68D3
:102908009B6A9A1C7B689A6229E07B681B685B68F3
:102918009BB2DBB29AB2FB681A807B689B6A5A1C2E
:102928007B689A621BE07B681B69002B0AD17B6875
:102938001B6858687B689B6A591C7A689162C2B2A6
:102948001A700CE07B681B685B68DAB27B689B6A6C
:10295800581C7968886202F07F02D2B21A707B68CC
:10296800DB8D9BB2013B9BB27A681946D185002B5F
:1029780020D17B681B68DA687B681B6822F020021C
:10298800DA607B681B68DA687B681B6822F48072EF
:10299800DA607B681B685A697B681B6822F0010251
:1029A8005A617B68202283F83A207868FDF7A2FDF7
:1029B800002302E0002300E0022318461037BD463A
:1029C80080BD00002DE9F04F85B000AF78607B68CE
:1029D8001B681B6923F440517B68DA687B681B68B5
:1029E8000A431A617B689A687B681B691A437B688B
:1029F8005B691A437B68DB691343FB607B681B6870
:102A0800DB6823F4164323F00C037A681268F9682C
:102A18000B43D3607B681B685B6923F440717B6858
:102A28009A697B681B680A435A617B68DB69B3F55E
:102A3800004F40F08B817B681B68C14A934205D0E8
:102A48007B681B68BF4A934240F0BD80FFF786FB56
:102A5800B860BB681D464FF00006A846B14618EBA3
:102A6800080349EB09049846A14618EB050849EB09
:102A780006094FF000014FF000024FEAC90242EA8E
:102A880058724FEAC8018846914618EB050049EB91
:102A980006017B685B681D464FF000066B1946EB24
:102AA80006041A462346FDF793FB03460C461A46CE
:102AB800A54BA3FB02235B094FEA0318BB681D461D
:102AC8004FF00006A946B24619EB09034AEB0A047F
:102AD8009946A24619EB05094AEB060A4FF0000190
:102AE8004FF000024FEACA0242EA59724FEAC9019E
:102AF8008946924619EB05004AEB06017B685B683C
:102B08001D464FF000066B1946EB06041A4623468D
:102B1800FDF75EFB03460C461A468B4BA3FB0213DC
:102B28005B09642101FB03F3D31ADB003233864AC5
:102B3800A2FB03235B095B0003F4F8739844BB68AA
:102B48001D464FF00006A946B24619EB09034AEBA9
:102B58000A049946A24619EB05094AEB060A4FF002
:102B680000014FF000024FEACA0242EA59724FEAE6
:102B7800C9018946924619EB05004AEB06017B68B4
:102B88005B681D464FF000066B1946EB06041A46B3
:102B98002346FDF71DFB03460C461A466A4BA3FB6A
:102BA80002135B09642101FB03F3D31ADB00323300
:102BB800654AA2FB03235B0903F007027B681B68D5
:102BC80042449A606FE2FFF7B5FAB860BB681D46E9
:102BD8004FF00006A846B14618EB080349EB090474
:102BE8009846A14618EB050849EB06094FF0000185
:102BF8004FF000024FEAC90242EA58724FEAC80190
:102C08008846914618EB050049EB06017B685B682E
:102C18001D464FF000066B1946EB06041A4623467C
:102C2800FDF7D6FA03460C461A46474BA3FB022388
:102C38005B094FEA0318BB681D464FF00006A9461A
:102C4800B24619EB09034AEB0A049946A24619EB66
:102C580005094AEB060A4FF000014FF000024FEA5F
:102C6800CA0242EA59724FEAC9018946924619EBEB
:102C780005004AEB06017B685B681D464FF00006BD
:102C88006B1946EB06041A462346FDF7A1FA0346DC
:102C98000C461A462C4BA3FB02135B09642101FB6B
:102CA80003F3D31ADB003233274AA2FB03235B0961
:102CB8005B0003F4F8739844BB681D464FF00006A8
:102CC800A946B24619EB09034AEB0A049946A246FB
:102CD80019EB05094AEB060A4FF000014FF0000214
:102CE8004FEACA0242EA59724FEAC9018946924636
:102CF80019EB05004AEB06017B685B681D464FF03F
:102D080000066B1946EB06041A462346FDF760FADF
:102D180003460C461A460C4BA3FB02135B096421BD
:102D280001FB03F3D31ADB003233074AA2FB032368
:102D38005B0903F007027B681B6842449A60B2E1B2
:102D480000100140001401401F85EB517B681B688F
:102D5800D74A934205D07B681B68D64A934240F015
:102D6800D180FFF7FBF9B860BB689A464FF0000BBB
:102D7800D046D94618EB080349EB09049846A14602
:102D880018EB0A0849EB0B094FF000014FF000025D
:102D98004FEAC90242EA58724FEAC801884691468A
:102DA8001AEB08054BEB09067B685B6819464FF080
:102DB80000024FF000034FF00004940044EA9174BD
:102DC8008B001A46234628463146FDF701FA03468A
:102DD8000C461A46B84BA3FB02235B094FEA0318BB
:102DE800BB689B464FF0000CD946E24619EB090335
:102DF8004AEB0A049946A24619EB0B094AEB0C0A5E
:102E08004FF000014FF000024FEACA0242EA59723D
:102E18004FEAC901894692461BEB09054CEB0A06A5
:102E28007B685B6819464FF000024FF000034FF0D3
:102E38000004940044EA91748B001A4623462846FD
:102E48003146FDF7C5F903460C461A469A4BA3FBD3
:102E580002135B09642101FB03F3D31A1B0132330C
:102E6800954AA2FB03235B0903F0F0039844BB686F
:102E78009B464FF0000CD946E24619EB09034AEB92
:102E88000A049946A24619EB0B094AEB0C0A4FF0C3
:102E980000014FF000024FEACA0242EA59724FEAB3
:102EA800C901894692461BEB09054CEB0A067B686B
:102EB8005B6819464FF000024FF000034FF0000422
:102EC800940044EA91748B001A46234628463146FA
:102ED800FDF77EF903460C461A46774BA3FB02130F
:102EE8005B09642101FB03F3D31A1B013233724AD5
:102EF800A2FB03235B0903F00F027B681B684244B3
:102F08009A60D0E0FFF716F9B860BB689A464FF0B0
:102F1800000BD046D94618EB080349EB090498463C
:102F2800A14618EB0A0849EB0B094FF000014FF0D6
:102F380000024FEAC90242EA58724FEAC8018846BD
:102F480091461AEB08054BEB09067B685B68194646
:102F58004FF000024FF000034FF00004940044EAE1
:102F680091748B001A46234628463146FDF730F9FE
:102F780003460C461A46504BA3FB02235B094FEA53
:102F88000318BB689B464FF0000CD946E24619EB84
:102F980009034AEB0A049946A24619EB0B094AEBC6
:102FA8000C0A4FF000014FF000024FEACA0242EA51
:102FB80059724FEAC901894692461BEB09054CEB49
:102FC8000A067B685B6819464FF000024FF0000361
:102FD8004FF00004940044EA91748B001A4623468B
:102FE80028463146FDF7F4F803460C461A46324B9C
:102FF800A3FB02135B09642101FB03F3D31A1B0132
:1030080032332D4AA2FB03235B0903F0F0039844F3
:10301800BB689B464FF0000CD946E24619EB090302
:103028004AEB0A049946A24619EB0B094AEB0C0A2B
:103038004FF000014FF000024FEACA0242EA59720B
:103048004FEAC901894692461BEB09054CEB0A0673
:103058007B685B6819464FF000024FF000034FF0A1
:103068000004940044EA91748B001A4623462846CB
:103078003146FDF7ADF803460C461A460E4BA3FB46
:1030880002135B09642101FB03F3D31A1B013233DA
:10309800094AA2FB03235B0903F00F027B681B6844
:1030A80042449A60FFE700BF1437BD46BDE8F08F81
:1030B80000100140001401401F85EB51014B1868B6
:1030C800704700BF0C00002070B50D4E0D4CA41BBE
:1030D800A4100025A54209D10B4E0C4C00F088FC29
:1030E800A41BA4100025A54205D170BD56F82530B3
:1030F80098470135EEE756F8253098470135F2E74D
:10310800C43A0008C43A0008C43A0008C83A00089B
:1031180002440346934200D1704703F8011BF9E7C4
:1031280070B50E46054618B183690BB900F00CFA64
:10313800AB69AC6813B9284600F006FA234B9C42E9
:1031480017D16C68A3891B071DD52369DBB1013E24
:10315800A36816F8011F013BA360E9B9002B2EDA1A
:1031680022460A21284600F03FF8013011D00A20F3
:1031780011E0174B9C4201D1AC68E3E7154B9C4228
:1031880008BFEC68DEE72146284600F07FF80028F3
:10319800DDD04FF0FF3070BD002B04DAA2699A42EF
:1031A80006DC0A2904D023685A1C22601970CFE76C
:1031B8002246284600F018F80130C9D1E9E723680B
:1031C8000A205A1C22601870E5E700BF7C3A000804
:1031D8009C3A00085C3A0008024B01461868FFF761
:1031E8009FBF00BF0C000020F8B50E4614460546E8
:1031F80018B183690BB900F0A7F9214B9C422AD179
:103208006C68A369A360A3891A072ED5236963B3E1
:1032180023692068C01A6369F6B28342374604DC22
:103228002146284600F026F928BBA368013BA36085
:1032380023685A1C22601E7063690130834204D0DF
:10324800A389DB0719D50A2E17D12146284600F095
:1032580011F990B10FE00B4B9C4201D1AC68D0E75B
:10326800094B9C4208BFEC68CBE72146284600F092
:103278000DF80028CCD04FF0FF373846F8BD00BF16
:103288007C3A00089C3A00085C3A0008324B70B55A
:103298001D6806460C4625B1AB6913B9284600F0EF
:1032A80053F92E4B9C420FD16C68B4F90C309AB28A
:1032B80015072CD4D00611D40922326043F04003FC
:1032C800A3814FF0FF303EE0254B9C4201D1AC6812
:1032D800EBE7244B9C4208BFEC68E6E7510712D5A0
:1032E800616B41B104F14403994202D0304600F0C9
:1032F80019FA00236363A38923F02403A38100231D
:10330800636023692360A38943F00803A3812369C9
:103318004BB9A38903F42073B3F5007F03D021468A
:10332800304600F0BFF9A28912F001030CD0002347
:10333800A36063695B42A361236953B9B4F90C3094
:1033480013F08000BAD170BD920758BF6369A360BB
:10335800F2E70020F7E700BF0C0000207C3A0008E5
:103368009C3A00085C3A00088A892DE9F041054634
:1033780010070C4658D44B68002B05DC0B6C002B4F
:1033880002DC0020BDE8F081E66A002EF9D00023B7
:1033980012F480522F68216A2B6032D0606DA389A5
:1033A8005A0705D56368C01A636B0BB1236CC01A42
:1033B80000230246E66A216A2846B047431CA389CF
:1033C80006D129681D2948D8294ACA40D60744D5B4
:1033D80000226260D9042269226004D5421C01D10E
:1033E8002B6803B96065616B2F600029C9D004F1AF
:1033F8004403994202D0284600F094F90020606303
:10340800C0E701232846B047411CC8D12B68002BD0
:10341800C5D01D2B01D0162B01D12F60B1E7A38990
:1034280043F04003A381ADE70F69002FA9D09307AC
:103438000E6808BF4B690F6018BF0023A6EB07088A
:103448008B60B8F1000F9CDD43463A46216AA66AB4
:103458002846B047002806DCA38943F04003A3812F
:103468004FF0FF308EE70744A8EB0008E9E700BFFC
:103478000100402038B50B6905460C46DBB118B190
:1034880083690BB900F060F80C4B9C4209D16C6859
:10349800B4F90C307BB121462846BDE83840FFF727
:1034A80063BF074B9C4201D1AC68F1E7054B9C42D6
:1034B80008BFEC68ECE7002038BD00BF7C3A000884
:1034C8009C3A00085C3A0008002310B50446C0E99D
:1034D8000033836081814366C281C0E9043383611C
:1034E800194608225C30FFF713FE054B6362054B53
:1034F800A362054BE362054B2462236310BD00BF42
:103508009D380008BF380008F73800081B39000844
:10351800014900F085B800BF7D34000870B54A1E27
:10352800682555430E4605F1740100F049F9044633
:1035380040B10021C0E900160C30A06005F1680216
:10354800FFF7E6FD204670BD836910B5044633BB1E
:10355800C0E912330365124B124A1B688262984213
:1035680004BF0123836100F01FF86060204600F06B
:103578001BF8A060204600F017F80022E060042144
:103588006068FFF7A1FF01220921A068FFF79CFFEF
:1035980002221221E068FFF797FF0123A36110BD03
:1035A800583A000819350008F8B51B4B1E68B3696E
:1035B800074613B93046FFF7C7FF4836D6E9013446
:1035C800013B03D5336833B13668F7E7B4F90C50DB
:1035D8006DB16834F4E704213846FFF79FFF306087
:1035E8000028F1D10C233B6004462046F8BD0B4B64
:1035F8006566C4E90055A560C4E90335C4E9055505
:103608000822294604F15C00FFF782FDC4E90D5544
:10361800C4E91255E9E700BF583A00080100FFFF66
:103628002DE9F8438046894600F14804002614B97C
:103638003046BDE8F883D4E90175013F01D5246817
:10364800F5E7AB89012B07D9B5F90E30013303D063
:1036580029464046C84706436835EEE770B50E462A
:10366800B1F90E10002996B014461D4607DA00235A
:103678002B60B3891A0610D44FF480630EE06A46B3
:1036880000F06EF90028F2DB019A02F47042A2F50C
:1036980000535A425A412A60EEE740230020236033
:1036A80016B070BD8B8973B59D0706460C4607D5C5
:1036B80004F14703236023610123636102B070BDF5
:1036C80001AB6A46FFF7CAFF00990546304600F08D
:1036D80077F848B9B4F90C309A05EFD423F003030E
:1036E80043F00203A381E3E70D4BB362A389206093
:1036F80043F08003A381009B6361019B20615BB160
:10370800B4F90E10304600F03DF928B1A38923F032
:10371800030343F00103A381A3891D43A581CDE7DA
:103728001935000838B50546002945D051F8043C3C
:103738000C1F002BB8BFE41800F046F91F4A1368A5
:10374800104633B9636014602846BDE8384000F07D
:103758003CB9A3420CD921686218934204BF1A6885
:103768005B68636004BF521822600460ECE713468C
:103778005A680AB1A242FAD919685818A0420BD15E
:1037880020680144581882421960DDD110685268D7
:103798005A6001441960D7E702D90C232B60D3E79C
:1037A800206821188A4204BF11685268626004BF09
:1037B800091821605C60C7E738BD00BF9C04002081
:1037C80070B5CD1C25F0030508350C2D38BF0C2528
:1037D800002D064601DBA94203D90C2333600020E3
:1037E80070BD00F0F1F8214A1468214691B9204CC7
:1037F80023681BB9304600F03DF820602946304662
:1038080000F038F8431C24D10C233360304600F014
:10381800DCF8E4E70B685B1B18D40B2B0FD90B60A3
:10382800CD50CC18304600F0D0F804F10B00231D21
:1038380020F00700C31AD3D05A42E250D0E78C4296
:103848004B6816BF636013600C46EBE70C4649688B
:10385800CCE7C41C24F00304A04205D0211A30464A
:1038680000F008F80130CFD02560DBE79C04002089
:10387800A004002038B5064C0023054608462360FE
:10388800FDF734FA431C02D1236803B12B6038BD1D
:10389800C805002010B50C46B1F90E1000F096F8D6
:1038A8000028ABBF636DA3891B1823F48053ACBFFA
:1038B8006365A38110BD2DE9F0411F468B89DB05A7
:1038C80005460C46164605D502230022B1F90E100E
:1038D80000F068F8A389B4F90E1023F48053A3818B
:1038E80032463B462846BDE8F04100F017B810B50F
:1038F8000C46B1F90E1000F055F8431CA38915BF0A
:10390800606523F4805343F48053A38118BFA381D7
:1039180010BDB1F90E1000F013B8000038B5074C0F
:10392800054608461146002222601A46FDF78DF921
:10393800431C02D1236803B12B6038BDC8050020A1
:1039480038B5064C0023054608462360FDF799F96B
:10395800431C02D1236803B12B6038BDC805002081
:1039680038B5074C00230546084611462360FDF785
:1039780094F9431C02D1236803B12B6038BD00BF02
:10398800C805002038B5064C0023054608462360C4
:10399800FDF793F9431C02D1236803B12B6038BDAE
:1039A800C805002038B5074C0546084611460022D0
:1039B80022601A46FDF78CF9431C02D1236803B133
:1039C8002B6038BDC80500207047704738B5074CD4
:1039D800054608461146002222601A46FDF718F9E6
:1039E800431C02D1236803B12B6038BDC8050020F1
:1039F800F8B500BFF8BC08BC9E467047F8B500BFD4
:083A0800F8BC08BC9E467047A3
:103A10005B554152543249545D2062756666657249
:103A2000206F766572666C6F770D000055534152BA
:103A3000543120494E495420737563632E0D0000A4
:103A4000000000000000000001020304060708094E
:103A5000000000000102030410000020000000002C
:103A60000000000000000000000000000000000056
:103A70000000000000000000000000000000000046
:103A80000000000000000000000000000000000036
:103A90000000000000000000000000000000000026
:103AA0000000000000000000000000000000000016
:0C3AB0000000000000000000000000000A
:083ABC004CC7FF7F0100000070
:043AC400BD01000838
:043AC8009901000858
:103ACC000024F40010000000010000001000002091
:103ADC00000000007C3A00089C3A00085C3A0008A0
:103AEC0000000000000000000000000000000000CA
:103AFC0000000000000000000000000000000000BA
:103B0C0000000000000000000000000000000000A9
:103B1C000000000000000000000000000000000099
:103B2C000000000000000000000000000000000089
:0400000508000D8D55
:00000001FF
